{"contracts/NeftexFund.sol":{"NeftexFund":{"abi":[{"inputs":[{"internalType":"uint256","name":"_campaignFee","type":"uint256"}],"stateMutability":"nonpayable","type":"constructor"},{"anonymous":false,"inputs":[{"indexed":false,"internalType":"uint256","name":"id","type":"uint256"},{"indexed":false,"internalType":"string","name":"actionType","type":"string"},{"indexed":true,"internalType":"address","name":"performer","type":"address"},{"indexed":false,"internalType":"uint256","name":"timestamp","type":"uint256"}],"name":"Action","type":"event"},{"inputs":[{"internalType":"uint256","name":"_fee","type":"uint256"}],"name":"ReviewFee","outputs":[],"stateMutability":"nonpayable","type":"function"},{"inputs":[{"internalType":"uint256","name":"","type":"uint256"}],"name":"availableCampaign","outputs":[{"internalType":"bool","name":"","type":"bool"}],"stateMutability":"view","type":"function"},{"inputs":[],"name":"balance","outputs":[{"internalType":"uint256","name":"","type":"uint256"}],"stateMutability":"view","type":"function"},{"inputs":[],"name":"campaignFee","outputs":[{"internalType":"uint256","name":"","type":"uint256"}],"stateMutability":"view","type":"function"},{"inputs":[],"name":"counts","outputs":[{"internalType":"uint256","name":"totalNumOfCampaigns","type":"uint256"},{"internalType":"uint256","name":"totalNumOfSupports","type":"uint256"},{"internalType":"uint256","name":"totalNumOfFundings","type":"uint256"}],"stateMutability":"view","type":"function"},{"inputs":[{"internalType":"uint256","name":"id","type":"uint256"}],"name":"demandRefund","outputs":[{"internalType":"bool","name":"","type":"bool"}],"stateMutability":"nonpayable","type":"function"},{"inputs":[{"internalType":"uint256","name":"id","type":"uint256"}],"name":"getcampaign","outputs":[{"components":[{"internalType":"uint256","name":"id","type":"uint256"},{"internalType":"address","name":"owner","type":"address"},{"internalType":"string","name":"title","type":"string"},{"internalType":"string","name":"description","type":"string"},{"internalType":"string","name":"imageURL","type":"string"},{"internalType":"uint256","name":"amount","type":"uint256"},{"internalType":"uint256","name":"amountAccrued","type":"uint256"},{"internalType":"uint256","name":"timestamp","type":"uint256"},{"internalType":"uint256","name":"deadline","type":"uint256"},{"internalType":"uint256","name":"_supporters","type":"uint256"},{"internalType":"enum NeftexFund.checkState","name":"check","type":"uint8"}],"internalType":"struct NeftexFund.campaignStruct","name":"","type":"tuple"}],"stateMutability":"view","type":"function"},{"inputs":[],"name":"getcampaigns","outputs":[{"components":[{"internalType":"uint256","name":"id","type":"uint256"},{"internalType":"address","name":"owner","type":"address"},{"internalType":"string","name":"title","type":"string"},{"internalType":"string","name":"description","type":"string"},{"internalType":"string","name":"imageURL","type":"string"},{"internalType":"uint256","name":"amount","type":"uint256"},{"internalType":"uint256","name":"amountAccrued","type":"uint256"},{"internalType":"uint256","name":"timestamp","type":"uint256"},{"internalType":"uint256","name":"deadline","type":"uint256"},{"internalType":"uint256","name":"_supporters","type":"uint256"},{"internalType":"enum NeftexFund.checkState","name":"check","type":"uint8"}],"internalType":"struct NeftexFund.campaignStruct[]","name":"","type":"tuple[]"}],"stateMutability":"view","type":"function"},{"inputs":[{"internalType":"uint256","name":"id","type":"uint256"}],"name":"getsupporters","outputs":[{"components":[{"internalType":"address","name":"owner","type":"address"},{"internalType":"uint256","name":"participation","type":"uint256"},{"internalType":"uint256","name":"timestamp","type":"uint256"},{"internalType":"bool","name":"refunded","type":"bool"}],"internalType":"struct NeftexFund.supporterStruct[]","name":"","type":"tuple[]"}],"stateMutability":"view","type":"function"},{"inputs":[],"name":"numOfCampaign","outputs":[{"internalType":"uint256","name":"","type":"uint256"}],"stateMutability":"view","type":"function"},{"inputs":[],"name":"owner","outputs":[{"internalType":"address","name":"","type":"address"}],"stateMutability":"view","type":"function"},{"inputs":[{"internalType":"uint256","name":"id","type":"uint256"},{"internalType":"string","name":"title","type":"string"},{"internalType":"string","name":"description","type":"string"},{"internalType":"string","name":"imageURL","type":"string"},{"internalType":"uint256","name":"deadline","type":"uint256"}],"name":"reviewcampaign","outputs":[{"internalType":"bool","name":"","type":"bool"}],"stateMutability":"nonpayable","type":"function"},{"inputs":[{"internalType":"string","name":"title","type":"string"},{"internalType":"string","name":"description","type":"string"},{"internalType":"string","name":"imageURL","type":"string"},{"internalType":"uint256","name":"amount","type":"uint256"},{"internalType":"uint256","name":"deadline","type":"uint256"}],"name":"startcampaign","outputs":[{"internalType":"bool","name":"","type":"bool"}],"stateMutability":"nonpayable","type":"function"},{"inputs":[{"internalType":"uint256","name":"id","type":"uint256"}],"name":"supportcampaign","outputs":[{"internalType":"bool","name":"","type":"bool"}],"stateMutability":"payable","type":"function"},{"inputs":[{"internalType":"uint256","name":"id","type":"uint256"}],"name":"terminatecampaign","outputs":[{"internalType":"bool","name":"","type":"bool"}],"stateMutability":"nonpayable","type":"function"},{"inputs":[{"internalType":"uint256","name":"id","type":"uint256"}],"name":"withdrawcampaign","outputs":[{"internalType":"bool","name":"","type":"bool"}],"stateMutability":"nonpayable","type":"function"}],"evm":{"bytecode":{"linkReferences":{},"object":"60806040523480156200001157600080fd5b50604051620038973803806200389783398181016040528101906200003791906200009c565b336000806101000a81548173ffffffffffffffffffffffffffffffffffffffff021916908373ffffffffffffffffffffffffffffffffffffffff1602179055508060018190555050620000f7565b6000815190506200009681620000dd565b92915050565b600060208284031215620000b557620000b4620000d8565b5b6000620000c58482850162000085565b91505092915050565b6000819050919050565b600080fd5b620000e881620000ce565b8114620000f457600080fd5b50565b61379080620001076000396000f3fe6080604052600436106100f35760003560e01c80638a5be9b71161008a578063ded196c411610059578063ded196c414610349578063f21b1a9c14610386578063f64b4f8d146103c3578063fc5ee9ae14610400576100f3565b80638a5be9b71461029f5780638da5cb5b146102ca578063a912e362146102f5578063b69ef8a81461031e576100f3565b806358968de2116100c657806358968de2146101bb5780637ecc3247146101f8578063817cc1ea1461023557806385d052e714610262576100f3565b80632db59396146100f85780633c3279ad146101235780633fd016ab1461016057806348813d8c1461018b575b600080fd5b34801561010457600080fd5b5061010d61043d565b60405161011a9190612d3f565b60405180910390f35b34801561012f57600080fd5b5061014a600480360381019061014591906123ef565b610443565b6040516101579190612ba2565b60405180910390f35b34801561016c57600080fd5b50610175610640565b6040516101829190612b5e565b60405180910390f35b6101a560048036038101906101a091906123ef565b610923565b6040516101b29190612ba2565b60405180910390f35b3480156101c757600080fd5b506101e260048036038101906101dd91906123ef565b610dc8565b6040516101ef9190612d1d565b60405180910390f35b34801561020457600080fd5b5061021f600480360381019061021a91906123ef565b6110e8565b60405161022c9190612ba2565b60405180910390f35b34801561024157600080fd5b5061024a61129e565b60405161025993929190612e86565b60405180910390f35b34801561026e57600080fd5b50610289600480360381019061028491906123ef565b6112b6565b6040516102969190612ba2565b60405180910390f35b3480156102ab57600080fd5b506102b4611414565b6040516102c19190612d3f565b60405180910390f35b3480156102d657600080fd5b506102df61141a565b6040516102ec9190612b43565b60405180910390f35b34801561030157600080fd5b5061031c600480360381019061031791906123ef565b61143e565b005b34801561032a57600080fd5b506103336114d6565b6040516103409190612d3f565b60405180910390f35b34801561035557600080fd5b50610370600480360381019061036b91906123ef565b6114dc565b60405161037d9190612ba2565b60405180910390f35b34801561039257600080fd5b506103ad60048036038101906103a891906123ef565b6114fc565b6040516103ba9190612b80565b60405180910390f35b3480156103cf57600080fd5b506103ea60048036038101906103e5919061241c565b6115f3565b6040516103f79190612ba2565b60405180910390f35b34801561040c57600080fd5b5061042760048036038101906104229190612320565b6118a9565b6040516104349190612ba2565b60405180910390f35b60025481565b60008060048111156104585761045761328b565b5b6007838154811061046c5761046b6132e9565b5b90600052602060002090600b0201600a0160009054906101000a900460ff16600481111561049d5761049c61328b565b5b146104dd576040517f08c379a00000000000000000000000000000000000000000000000000000000081526004016104d490612c5d565b60405180910390fd5b600782815481106104f1576104f06132e9565b5b90600052602060002090600b020160010160009054906101000a900473ffffffffffffffffffffffffffffffffffffffff1673ffffffffffffffffffffffffffffffffffffffff163373ffffffffffffffffffffffffffffffffffffffff1614610590576040517f08c379a000000000000000000000000000000000000000000000000000000000815260040161058790612c1d565b60405180910390fd5b6003600783815481106105a6576105a56132e9565b5b90600052602060002090600b0201600a0160006101000a81548160ff021916908360048111156105d9576105d861328b565b5b02179055506105e782611db1565b3373ffffffffffffffffffffffffffffffffffffffff167faee8e5d3bbb2f71a951b5632cee20f7ac487b9f8ab4f66a236f7694b13af7c6a834260405161062f929190612d96565b60405180910390a260019050919050565b60606007805480602002602001604051908101604052809291908181526020016000905b8282101561091a57838290600052602060002090600b020160405180610160016040529081600082015481526020016001820160009054906101000a900473ffffffffffffffffffffffffffffffffffffffff1673ffffffffffffffffffffffffffffffffffffffff1673ffffffffffffffffffffffffffffffffffffffff1681526020016002820180546106f890613181565b80601f016020809104026020016040519081016040528092919081815260200182805461072490613181565b80156107715780601f1061074657610100808354040283529160200191610771565b820191906000526020600020905b81548152906001019060200180831161075457829003601f168201915b5050505050815260200160038201805461078a90613181565b80601f01602080910402602001604051908101604052809291908181526020018280546107b690613181565b80156108035780601f106107d857610100808354040283529160200191610803565b820191906000526020600020905b8154815290600101906020018083116107e657829003601f168201915b5050505050815260200160048201805461081c90613181565b80601f016020809104026020016040519081016040528092919081815260200182805461084890613181565b80156108955780601f1061086a57610100808354040283529160200191610895565b820191906000526020600020905b81548152906001019060200180831161087857829003601f168201915b505050505081526020016005820154815260200160068201548152602001600782015481526020016008820154815260200160098201548152602001600a820160009054906101000a900460ff1660048111156108f5576108f461328b565b5b60048111156109075761090661328b565b5b8152505081526020019060010190610664565b50505050905090565b6000803411610967576040517f08c379a000000000000000000000000000000000000000000000000000000000815260040161095e90612cfd565b60405180910390fd5b600a600083815260200190815260200160002060009054906101000a900460ff166109c7576040517f08c379a00000000000000000000000000000000000000000000000000000000081526004016109be90612bfd565b60405180910390fd5b600060048111156109db576109da61328b565b5b600783815481106109ef576109ee6132e9565b5b90600052602060002090600b0201600a0160009054906101000a900460ff166004811115610a2057610a1f61328b565b5b14610a60576040517f08c379a0000000000000000000000000000000000000000000000000000000008152600401610a5790612c5d565b60405180910390fd5b600160046001016000828254610a769190612fbd565b925050819055503460046002016000828254610a929190612fbd565b925050819055503460078381548110610aae57610aad6132e9565b5b90600052602060002090600b02016006016000828254610ace9190612fbd565b92505081905550600160078381548110610aeb57610aea6132e9565b5b90600052602060002090600b0201600901819055506009600083815260200190815260200160002060405180608001604052803373ffffffffffffffffffffffffffffffffffffffff16815260200134815260200142815260200160001515815250908060018154018082558091505060019003906000526020600020906004020160009091909190915060008201518160000160006101000a81548173ffffffffffffffffffffffffffffffffffffffff021916908373ffffffffffffffffffffffffffffffffffffffff160217905550602082015181600101556040820151816002015560608201518160030160006101000a81548160ff02191690831515021790555050503373ffffffffffffffffffffffffffffffffffffffff167faee8e5d3bbb2f71a951b5632cee20f7ac487b9f8ab4f66a236f7694b13af7c6a8342604051610c3b929190612d5a565b60405180910390a260078281548110610c5757610c566132e9565b5b90600052602060002090600b02016005015460078381548110610c7d57610c7c6132e9565b5b90600052602060002090600b02016006015410610d3257600160078381548110610caa57610ca96132e9565b5b90600052602060002090600b0201600a0160006101000a81548160ff02191690836004811115610cdd57610cdc61328b565b5b021790555060078281548110610cf657610cf56132e9565b5b90600052602060002090600b02016006015460036000828254610d199190612fbd565b92505081905550610d2982611f4e565b60019050610dc3565b60078281548110610d4657610d456132e9565b5b90600052602060002090600b0201600801544210610dbe57600260078381548110610d7457610d736132e9565b5b90600052602060002090600b0201600a0160006101000a81548160ff02191690836004811115610da757610da661328b565b5b0217905550610db582611db1565b60019050610dc3565b600190505b919050565b610dd0612176565b600a600083815260200190815260200160002060009054906101000a900460ff16610e30576040517f08c379a0000000000000000000000000000000000000000000000000000000008152600401610e2790612bfd565b60405180910390fd5b60078281548110610e4457610e436132e9565b5b90600052602060002090600b020160405180610160016040529081600082015481526020016001820160009054906101000a900473ffffffffffffffffffffffffffffffffffffffff1673ffffffffffffffffffffffffffffffffffffffff1673ffffffffffffffffffffffffffffffffffffffff168152602001600282018054610ece90613181565b80601f0160208091040260200160405190810160405280929190818152602001828054610efa90613181565b8015610f475780601f10610f1c57610100808354040283529160200191610f47565b820191906000526020600020905b815481529060010190602001808311610f2a57829003601f168201915b50505050508152602001600382018054610f6090613181565b80601f0160208091040260200160405190810160405280929190818152602001828054610f8c90613181565b8015610fd95780601f10610fae57610100808354040283529160200191610fd9565b820191906000526020600020905b815481529060010190602001808311610fbc57829003601f168201915b50505050508152602001600482018054610ff290613181565b80601f016020809104026020016040519081016040528092919081815260200182805461101e90613181565b801561106b5780601f106110405761010080835404028352916020019161106b565b820191906000526020600020905b81548152906001019060200180831161104e57829003601f168201915b505050505081526020016005820154815260200160068201548152602001600782015481526020016008820154815260200160098201548152602001600a820160009054906101000a900460ff1660048111156110cb576110ca61328b565b5b60048111156110dd576110dc61328b565b5b815250509050919050565b6000600160048111156110fe576110fd61328b565b5b60078381548110611112576111116132e9565b5b90600052602060002090600b0201600a0160009054906101000a900460ff1660048111156111435761114261328b565b5b14611183576040517f08c379a000000000000000000000000000000000000000000000000000000000815260040161117a90612bbd565b60405180910390fd5b60078281548110611197576111966132e9565b5b90600052602060002090600b020160010160009054906101000a900473ffffffffffffffffffffffffffffffffffffffff1673ffffffffffffffffffffffffffffffffffffffff163373ffffffffffffffffffffffffffffffffffffffff16148061124d575060008054906101000a900473ffffffffffffffffffffffffffffffffffffffff1673ffffffffffffffffffffffffffffffffffffffff163373ffffffffffffffffffffffffffffffffffffffff16145b61128c576040517f08c379a000000000000000000000000000000000000000000000000000000000815260040161128390612c1d565b60405180910390fd5b61129582611f4e565b60019050919050565b60048060000154908060010154908060020154905083565b6000600260048111156112cc576112cb61328b565b5b600783815481106112e0576112df6132e9565b5b90600052602060002090600b0201600a0160009054906101000a900460ff1660048111156113115761131061328b565b5b14158061137557506003600481111561132d5761132c61328b565b5b60078381548110611341576113406132e9565b5b90600052602060002090600b0201600a0160009054906101000a900460ff1660048111156113725761137161328b565b5b14155b6113b4576040517f08c379a00000000000000000000000000000000000000000000000000000000081526004016113ab90612cbd565b60405180910390fd5b6002600783815481106113ca576113c96132e9565b5b90600052602060002090600b0201600a0160006101000a81548160ff021916908360048111156113fd576113fc61328b565b5b021790555061140b82611db1565b60019050919050565b60015481565b60008054906101000a900473ffffffffffffffffffffffffffffffffffffffff1681565b60008054906101000a900473ffffffffffffffffffffffffffffffffffffffff1673ffffffffffffffffffffffffffffffffffffffff163373ffffffffffffffffffffffffffffffffffffffff16146114cc576040517f08c379a00000000000000000000000000000000000000000000000000000000081526004016114c390612bdd565b60405180910390fd5b8060018190555050565b60035481565b600a6020528060005260406000206000915054906101000a900460ff1681565b606060096000838152602001908152602001600020805480602002602001604051908101604052809291908181526020016000905b828210156115e857838290600052602060002090600402016040518060800160405290816000820160009054906101000a900473ffffffffffffffffffffffffffffffffffffffff1673ffffffffffffffffffffffffffffffffffffffff1673ffffffffffffffffffffffffffffffffffffffff16815260200160018201548152602001600282015481526020016003820160009054906101000a900460ff16151515158152505081526020019060010190611531565b505050509050919050565b600060078681548110611609576116086132e9565b5b90600052602060002090600b020160010160009054906101000a900473ffffffffffffffffffffffffffffffffffffffff1673ffffffffffffffffffffffffffffffffffffffff163373ffffffffffffffffffffffffffffffffffffffff16146116a8576040517f08c379a000000000000000000000000000000000000000000000000000000000815260040161169f90612c1d565b60405180910390fd5b60008551116116ec576040517f08c379a00000000000000000000000000000000000000000000000000000000081526004016116e390612c3d565b60405180910390fd5b6000845111611730576040517f08c379a000000000000000000000000000000000000000000000000000000000815260040161172790612c7d565b60405180910390fd5b6000835111611774576040517f08c379a000000000000000000000000000000000000000000000000000000000815260040161176b90612c9d565b60405180910390fd5b8460078781548110611789576117886132e9565b5b90600052602060002090600b020160020190805190602001906117ad9291906121f8565b5083600787815481106117c3576117c26132e9565b5b90600052602060002090600b020160030190805190602001906117e79291906121f8565b5082600787815481106117fd576117fc6132e9565b5b90600052602060002090600b020160040190805190602001906118219291906121f8565b508160078781548110611837576118366132e9565b5b90600052602060002090600b0201600801819055503373ffffffffffffffffffffffffffffffffffffffff167faee8e5d3bbb2f71a951b5632cee20f7ac487b9f8ab4f66a236f7694b13af7c6a8742604051611894929190612e4a565b60405180910390a26001905095945050505050565b6000808651116118ee576040517f08c379a00000000000000000000000000000000000000000000000000000000081526004016118e590612c3d565b60405180910390fd5b6000855111611932576040517f08c379a000000000000000000000000000000000000000000000000000000000815260040161192990612c7d565b60405180910390fd5b6000845111611976576040517f08c379a000000000000000000000000000000000000000000000000000000000815260040161196d90612c9d565b60405180910390fd5b600083116119b9576040517f08c379a00000000000000000000000000000000000000000000000000000000081526004016119b090612cdd565b60405180910390fd5b6119c1612176565b60025481600001818152505033816020019073ffffffffffffffffffffffffffffffffffffffff16908173ffffffffffffffffffffffffffffffffffffffff1681525050868160400181905250858160600181905250848160800181905250838160a0018181525050428160e0018181525050828161010001818152505060078190806001815401808255809150506001900390600052602060002090600b02016000909190919091506000820151816000015560208201518160010160006101000a81548173ffffffffffffffffffffffffffffffffffffffff021916908373ffffffffffffffffffffffffffffffffffffffff1602179055506040820151816002019080519060200190611ad89291906121f8565b506060820151816003019080519060200190611af59291906121f8565b506080820151816004019080519060200190611b129291906121f8565b5060a0820151816005015560c0820151816006015560e082015181600701556101008201518160080155610120820151816009015561014082015181600a0160006101000a81548160ff02191690836004811115611b7357611b7261328b565b5b021790555050506001600a6000600254815260200190815260200160002060006101000a81548160ff021916908315150217905550600860003373ffffffffffffffffffffffffffffffffffffffff1673ffffffffffffffffffffffffffffffffffffffff1681526020019081526020016000208190806001815401808255809150506001900390600052602060002090600b02016000909190919091506000820151816000015560208201518160010160006101000a81548173ffffffffffffffffffffffffffffffffffffffff021916908373ffffffffffffffffffffffffffffffffffffffff1602179055506040820151816002019080519060200190611c7e9291906121f8565b506060820151816003019080519060200190611c9b9291906121f8565b506080820151816004019080519060200190611cb89291906121f8565b5060a0820151816005015560c0820151816006015560e082015181600701556101008201518160080155610120820151816009015561014082015181600a0160006101000a81548160ff02191690836004811115611d1957611d1861328b565b5b02179055505050600160046000016000828254611d369190612fbd565b925050819055503373ffffffffffffffffffffffffffffffffffffffff167faee8e5d3bbb2f71a951b5632cee20f7ac487b9f8ab4f66a236f7694b13af7c6a60026000815480929190611d88906131e4565b9190505542604051611d9b929190612e0e565b60405180910390a2600191505095945050505050565b60005b6009600083815260200190815260200160002080549050811015611f4a576000600960008481526020019081526020016000208281548110611df957611df86132e9565b5b906000526020600020906004020160000160009054906101000a900473ffffffffffffffffffffffffffffffffffffffff1690506000600960008581526020019081526020016000208381548110611e5457611e536132e9565b5b90600052602060002090600402016001015490506001600960008681526020019081526020016000208481548110611e8f57611e8e6132e9565b5b906000526020600020906004020160030160006101000a81548160ff02191690831515021790555042600960008681526020019081526020016000208481548110611edd57611edc6132e9565b5b906000526020600020906004020160020181905550611efc82826120fb565b600160046001016000828254611f12919061309e565b925050819055508060046002016000828254611f2e919061309e565b9250508190555050508080611f42906131e4565b915050611db4565b5050565b600060078281548110611f6457611f636132e9565b5b90600052602060002090600b02016006015490506000606460015483611f8a9190613044565b611f949190613013565b9050600460078481548110611fac57611fab6132e9565b5b90600052602060002090600b0201600a0160006101000a81548160ff02191690836004811115611fdf57611fde61328b565b5b021790555061203e60078481548110611ffb57611ffa6132e9565b5b90600052602060002090600b020160010160009054906101000a900473ffffffffffffffffffffffffffffffffffffffff168284612039919061309e565b6120fb565b61206860008054906101000a900473ffffffffffffffffffffffffffffffffffffffff16826120fb565b6007838154811061207c5761207b6132e9565b5b90600052602060002090600b0201600601546003600082825461209f919061309e565b925050819055503373ffffffffffffffffffffffffffffffffffffffff167faee8e5d3bbb2f71a951b5632cee20f7ac487b9f8ab4f66a236f7694b13af7c6a84426040516120ee929190612dd2565b60405180910390a2505050565b60008273ffffffffffffffffffffffffffffffffffffffff168260405161212190612b2e565b60006040518083038185875af1925050503d806000811461215e576040519150601f19603f3d011682016040523d82523d6000602084013e612163565b606091505b505090508061217157600080fd5b505050565b60405180610160016040528060008152602001600073ffffffffffffffffffffffffffffffffffffffff1681526020016060815260200160608152602001606081526020016000815260200160008152602001600081526020016000815260200160008152602001600060048111156121f2576121f161328b565b5b81525090565b82805461220490613181565b90600052602060002090601f016020900481019282612226576000855561226d565b82601f1061223f57805160ff191683800117855561226d565b8280016001018555821561226d579182015b8281111561226c578251825591602001919060010190612251565b5b50905061227a919061227e565b5090565b5b8082111561229757600081600090555060010161227f565b5090565b60006122ae6122a984612ee2565b612ebd565b9050828152602081018484840111156122ca576122c961334c565b5b6122d584828561313f565b509392505050565b600082601f8301126122f2576122f1613347565b5b813561230284826020860161229b565b91505092915050565b60008135905061231a81613743565b92915050565b600080600080600060a0868803121561233c5761233b613356565b5b600086013567ffffffffffffffff81111561235a57612359613351565b5b612366888289016122dd565b955050602086013567ffffffffffffffff81111561238757612386613351565b5b612393888289016122dd565b945050604086013567ffffffffffffffff8111156123b4576123b3613351565b5b6123c0888289016122dd565b93505060606123d18882890161230b565b92505060806123e28882890161230b565b9150509295509295909350565b60006020828403121561240557612404613356565b5b60006124138482850161230b565b91505092915050565b600080600080600060a0868803121561243857612437613356565b5b60006124468882890161230b565b955050602086013567ffffffffffffffff81111561246757612466613351565b5b612473888289016122dd565b945050604086013567ffffffffffffffff81111561249457612493613351565b5b6124a0888289016122dd565b935050606086013567ffffffffffffffff8111156124c1576124c0613351565b5b6124cd888289016122dd565b92505060806124de8882890161230b565b9150509295509295909350565b60006124f783836128c1565b905092915050565b600061250b8383612abb565b60808301905092915050565b612520816130d2565b82525050565b61252f816130d2565b82525050565b600061254082612f33565b61254a8185612f6e565b93508360208202850161255c85612f13565b8060005b85811015612598578484038952815161257985826124eb565b945061258483612f54565b925060208a01995050600181019050612560565b50829750879550505050505092915050565b60006125b582612f3e565b6125bf8185612f7f565b93506125ca83612f23565b8060005b838110156125fb5781516125e288826124ff565b97506125ed83612f61565b9250506001810190506125ce565b5085935050505092915050565b612611816130e4565b82525050565b612620816130e4565b82525050565b61262f8161312d565b82525050565b600061264082612f49565b61264a8185612f9b565b935061265a81856020860161314e565b6126638161335b565b840191505092915050565b600061267b601683612fac565b91506126868261336c565b602082019050919050565b600061269e602c83612fac565b91506126a982613395565b604082019050919050565b60006126c1601b83612fac565b91506126cc826133e4565b602082019050919050565b60006126e4601a83612fac565b91506126ef8261340d565b602082019050919050565b6000612707602683612fac565b915061271282613436565b604082019050919050565b600061272a602583612fac565b915061273582613485565b604082019050919050565b600061274d601283612fac565b9150612758826134d4565b602082019050919050565b6000612770602c83612fac565b915061277b826134fd565b604082019050919050565b6000612793601383612fac565b915061279e8261354c565b602082019050919050565b60006127b6602b83612fac565b91506127c182613575565b604082019050919050565b60006127d9601283612fac565b91506127e4826135c4565b602082019050919050565b60006127fc603c83612fac565b9150612807826135ed565b604082019050919050565b600061281f601083612fac565b915061282a8261363c565b602082019050919050565b6000612842601183612fac565b915061284d82613665565b602082019050919050565b6000612865600083612f90565b91506128708261368e565b600082019050919050565b6000612888602f83612fac565b915061289382613691565b604082019050919050565b60006128ab603483612fac565b91506128b6826136e0565b604082019050919050565b6000610160830160008301516128da6000860182612b10565b5060208301516128ed6020860182612517565b50604083015184820360408601526129058282612635565b9150506060830151848203606086015261291f8282612635565b915050608083015184820360808601526129398282612635565b91505060a083015161294e60a0860182612b10565b5060c083015161296160c0860182612b10565b5060e083015161297460e0860182612b10565b50610100830151612989610100860182612b10565b5061012083015161299e610120860182612b10565b506101408301516129b3610140860182612626565b508091505092915050565b6000610160830160008301516129d76000860182612b10565b5060208301516129ea6020860182612517565b5060408301518482036040860152612a028282612635565b91505060608301518482036060860152612a1c8282612635565b91505060808301518482036080860152612a368282612635565b91505060a0830151612a4b60a0860182612b10565b5060c0830151612a5e60c0860182612b10565b5060e0830151612a7160e0860182612b10565b50610100830151612a86610100860182612b10565b50610120830151612a9b610120860182612b10565b50610140830151612ab0610140860182612626565b508091505092915050565b608082016000820151612ad16000850182612517565b506020820151612ae46020850182612b10565b506040820151612af76040850182612b10565b506060820151612b0a6060850182612608565b50505050565b612b1981613123565b82525050565b612b2881613123565b82525050565b6000612b3982612858565b9150819050919050565b6000602082019050612b586000830184612526565b92915050565b60006020820190508181036000830152612b788184612535565b905092915050565b60006020820190508181036000830152612b9a81846125aa565b905092915050565b6000602082019050612bb76000830184612617565b92915050565b60006020820190508181036000830152612bd68161266e565b9050919050565b60006020820190508181036000830152612bf681612691565b9050919050565b60006020820190508181036000830152612c16816126b4565b9050919050565b60006020820190508181036000830152612c36816126d7565b9050919050565b60006020820190508181036000830152612c56816126fa565b9050919050565b60006020820190508181036000830152612c768161271d565b9050919050565b60006020820190508181036000830152612c9681612763565b9050919050565b60006020820190508181036000830152612cb6816127a9565b9050919050565b60006020820190508181036000830152612cd6816127ef565b9050919050565b60006020820190508181036000830152612cf68161287b565b9050919050565b60006020820190508181036000830152612d168161289e565b9050919050565b60006020820190508181036000830152612d3781846129be565b905092915050565b6000602082019050612d546000830184612b1f565b92915050565b6000606082019050612d6f6000830185612b1f565b8181036020830152612d8081612740565b9050612d8f6040830184612b1f565b9392505050565b6000606082019050612dab6000830185612b1f565b8181036020830152612dbc81612786565b9050612dcb6040830184612b1f565b9392505050565b6000606082019050612de76000830185612b1f565b8181036020830152612df8816127cc565b9050612e076040830184612b1f565b9392505050565b6000606082019050612e236000830185612b1f565b8181036020830152612e3481612812565b9050612e436040830184612b1f565b9392505050565b6000606082019050612e5f6000830185612b1f565b8181036020830152612e7081612835565b9050612e7f6040830184612b1f565b9392505050565b6000606082019050612e9b6000830186612b1f565b612ea86020830185612b1f565b612eb56040830184612b1f565b949350505050565b6000612ec7612ed8565b9050612ed382826131b3565b919050565b6000604051905090565b600067ffffffffffffffff821115612efd57612efc613318565b5b612f068261335b565b9050602081019050919050565b6000819050602082019050919050565b6000819050602082019050919050565b600081519050919050565b600081519050919050565b600081519050919050565b6000602082019050919050565b6000602082019050919050565b600082825260208201905092915050565b600082825260208201905092915050565b600081905092915050565b600082825260208201905092915050565b600082825260208201905092915050565b6000612fc882613123565b9150612fd383613123565b9250827fffffffffffffffffffffffffffffffffffffffffffffffffffffffffffffffff038211156130085761300761322d565b5b828201905092915050565b600061301e82613123565b915061302983613123565b9250826130395761303861325c565b5b828204905092915050565b600061304f82613123565b915061305a83613123565b9250817fffffffffffffffffffffffffffffffffffffffffffffffffffffffffffffffff04831182151516156130935761309261322d565b5b828202905092915050565b60006130a982613123565b91506130b483613123565b9250828210156130c7576130c661322d565b5b828203905092915050565b60006130dd82613103565b9050919050565b60008115159050919050565b60008190506130fe8261372f565b919050565b600073ffffffffffffffffffffffffffffffffffffffff82169050919050565b6000819050919050565b6000613138826130f0565b9050919050565b82818337600083830152505050565b60005b8381101561316c578082015181840152602081019050613151565b8381111561317b576000848401525b50505050565b6000600282049050600182168061319957607f821691505b602082108114156131ad576131ac6132ba565b5b50919050565b6131bc8261335b565b810181811067ffffffffffffffff821117156131db576131da613318565b5b80604052505050565b60006131ef82613123565b91507fffffffffffffffffffffffffffffffffffffffffffffffffffffffffffffffff8214156132225761322161322d565b5b600182019050919050565b7f4e487b7100000000000000000000000000000000000000000000000000000000600052601160045260246000fd5b7f4e487b7100000000000000000000000000000000000000000000000000000000600052601260045260246000fd5b7f4e487b7100000000000000000000000000000000000000000000000000000000600052602160045260246000fd5b7f4e487b7100000000000000000000000000000000000000000000000000000000600052602260045260246000fd5b7f4e487b7100000000000000000000000000000000000000000000000000000000600052603260045260246000fd5b7f4e487b7100000000000000000000000000000000000000000000000000000000600052604160045260246000fd5b600080fd5b600080fd5b600080fd5b600080fd5b6000601f19601f8301169050919050565b7f63616d706169676e206e6f7420434f4e4649524d454400000000000000000000600082015250565b7f54686973206973207370656369666963616c6c7920726573747269637465642060008201527f746f20746865206f776e65720000000000000000000000000000000000000000602082015250565b7f536f727279212c2063616e27742066696e642063616d706169676e0000000000600082015250565b7f536f727279212c20556e617574686f72697a6564204f776e6572000000000000600082015250565b7f4b696e646c7920777269746520746865207469746c65206f662074686520636160008201527f6d706169676e0000000000000000000000000000000000000000000000000000602082015250565b7f536f727279212c2063616d706169676e206973206e6f206c6f6e67657220527560008201527f6e6e696e67000000000000000000000000000000000000000000000000000000602082015250565b7f63616d706169676e20535550504f525445440000000000000000000000000000600082015250565b7f4b696e646c7920777269746520746865206465736372697074696f6e206f662060008201527f7468652063616d706169676e0000000000000000000000000000000000000000602082015250565b7f63616d706169676e205445524d494e4154454400000000000000000000000000600082015250565b7f4b696e646c7920696e636c7564652074686520496d61676555524c206f66207460008201527f68652063616d706169676e000000000000000000000000000000000000000000602082015250565b7f63616d706169676e2057495448445241574e0000000000000000000000000000600082015250565b7f536f727279212c2063616d706169676e206973206e6f7420636c61737369666960008201527f6564206173207265766572736564206f72207465726d696e6174656400000000602082015250565b7f63616d706169676e204352454154454400000000000000000000000000000000600082015250565b7f63616d706169676e205245564549574544000000000000000000000000000000600082015250565b50565b7f4b696e646c792077726974652074686520616d6f756e7420696e20455448206660008201527f6f72207468652063616d706169676e0000000000000000000000000000000000602082015250565b7f536f727279212074686520616d6f756e74206f66206574686572206d7573742060008201527f62652067726561746572207468616e207a65726f000000000000000000000000602082015250565b600581106137405761373f61328b565b5b50565b61374c81613123565b811461375757600080fd5b5056fea2646970667358221220bc51eb24c964315d0e7df9b3eb46a21c78ec78fc1789dc6604f5be7e56403ac164736f6c63430008070033","opcodes":"PUSH1 0x80 PUSH1 0x40 MSTORE CALLVALUE DUP1 ISZERO PUSH3 0x11 JUMPI PUSH1 0x0 DUP1 REVERT JUMPDEST POP PUSH1 0x40 MLOAD PUSH3 0x3897 CODESIZE SUB DUP1 PUSH3 0x3897 DUP4 CODECOPY DUP2 DUP2 ADD PUSH1 0x40 MSTORE DUP2 ADD SWAP1 PUSH3 0x37 SWAP2 SWAP1 PUSH3 0x9C JUMP JUMPDEST CALLER PUSH1 0x0 DUP1 PUSH2 0x100 EXP DUP2 SLOAD DUP2 PUSH20 0xFFFFFFFFFFFFFFFFFFFFFFFFFFFFFFFFFFFFFFFF MUL NOT AND SWAP1 DUP4 PUSH20 0xFFFFFFFFFFFFFFFFFFFFFFFFFFFFFFFFFFFFFFFF AND MUL OR SWAP1 SSTORE POP DUP1 PUSH1 0x1 DUP2 SWAP1 SSTORE POP POP PUSH3 0xF7 JUMP JUMPDEST PUSH1 0x0 DUP2 MLOAD SWAP1 POP PUSH3 0x96 DUP2 PUSH3 0xDD JUMP JUMPDEST SWAP3 SWAP2 POP POP JUMP JUMPDEST PUSH1 0x0 PUSH1 0x20 DUP3 DUP5 SUB SLT ISZERO PUSH3 0xB5 JUMPI PUSH3 0xB4 PUSH3 0xD8 JUMP JUMPDEST JUMPDEST PUSH1 0x0 PUSH3 0xC5 DUP5 DUP3 DUP6 ADD PUSH3 0x85 JUMP JUMPDEST SWAP2 POP POP SWAP3 SWAP2 POP POP JUMP JUMPDEST PUSH1 0x0 DUP2 SWAP1 POP SWAP2 SWAP1 POP JUMP JUMPDEST PUSH1 0x0 DUP1 REVERT JUMPDEST PUSH3 0xE8 DUP2 PUSH3 0xCE JUMP JUMPDEST DUP2 EQ PUSH3 0xF4 JUMPI PUSH1 0x0 DUP1 REVERT JUMPDEST POP JUMP JUMPDEST PUSH2 0x3790 DUP1 PUSH3 0x107 PUSH1 0x0 CODECOPY PUSH1 0x0 RETURN INVALID PUSH1 0x80 PUSH1 0x40 MSTORE PUSH1 0x4 CALLDATASIZE LT PUSH2 0xF3 JUMPI PUSH1 0x0 CALLDATALOAD PUSH1 0xE0 SHR DUP1 PUSH4 0x8A5BE9B7 GT PUSH2 0x8A JUMPI DUP1 PUSH4 0xDED196C4 GT PUSH2 0x59 JUMPI DUP1 PUSH4 0xDED196C4 EQ PUSH2 0x349 JUMPI DUP1 PUSH4 0xF21B1A9C EQ PUSH2 0x386 JUMPI DUP1 PUSH4 0xF64B4F8D EQ PUSH2 0x3C3 JUMPI DUP1 PUSH4 0xFC5EE9AE EQ PUSH2 0x400 JUMPI PUSH2 0xF3 JUMP JUMPDEST DUP1 PUSH4 0x8A5BE9B7 EQ PUSH2 0x29F JUMPI DUP1 PUSH4 0x8DA5CB5B EQ PUSH2 0x2CA JUMPI DUP1 PUSH4 0xA912E362 EQ PUSH2 0x2F5 JUMPI DUP1 PUSH4 0xB69EF8A8 EQ PUSH2 0x31E JUMPI PUSH2 0xF3 JUMP JUMPDEST DUP1 PUSH4 0x58968DE2 GT PUSH2 0xC6 JUMPI DUP1 PUSH4 0x58968DE2 EQ PUSH2 0x1BB JUMPI DUP1 PUSH4 0x7ECC3247 EQ PUSH2 0x1F8 JUMPI DUP1 PUSH4 0x817CC1EA EQ PUSH2 0x235 JUMPI DUP1 PUSH4 0x85D052E7 EQ PUSH2 0x262 JUMPI PUSH2 0xF3 JUMP JUMPDEST DUP1 PUSH4 0x2DB59396 EQ PUSH2 0xF8 JUMPI DUP1 PUSH4 0x3C3279AD EQ PUSH2 0x123 JUMPI DUP1 PUSH4 0x3FD016AB EQ PUSH2 0x160 JUMPI DUP1 PUSH4 0x48813D8C EQ PUSH2 0x18B JUMPI JUMPDEST PUSH1 0x0 DUP1 REVERT JUMPDEST CALLVALUE DUP1 ISZERO PUSH2 0x104 JUMPI PUSH1 0x0 DUP1 REVERT JUMPDEST POP PUSH2 0x10D PUSH2 0x43D JUMP JUMPDEST PUSH1 0x40 MLOAD PUSH2 0x11A SWAP2 SWAP1 PUSH2 0x2D3F JUMP JUMPDEST PUSH1 0x40 MLOAD DUP1 SWAP2 SUB SWAP1 RETURN JUMPDEST CALLVALUE DUP1 ISZERO PUSH2 0x12F JUMPI PUSH1 0x0 DUP1 REVERT JUMPDEST POP PUSH2 0x14A PUSH1 0x4 DUP1 CALLDATASIZE SUB DUP2 ADD SWAP1 PUSH2 0x145 SWAP2 SWAP1 PUSH2 0x23EF JUMP JUMPDEST PUSH2 0x443 JUMP JUMPDEST PUSH1 0x40 MLOAD PUSH2 0x157 SWAP2 SWAP1 PUSH2 0x2BA2 JUMP JUMPDEST PUSH1 0x40 MLOAD DUP1 SWAP2 SUB SWAP1 RETURN JUMPDEST CALLVALUE DUP1 ISZERO PUSH2 0x16C JUMPI PUSH1 0x0 DUP1 REVERT JUMPDEST POP PUSH2 0x175 PUSH2 0x640 JUMP JUMPDEST PUSH1 0x40 MLOAD PUSH2 0x182 SWAP2 SWAP1 PUSH2 0x2B5E JUMP JUMPDEST PUSH1 0x40 MLOAD DUP1 SWAP2 SUB SWAP1 RETURN JUMPDEST PUSH2 0x1A5 PUSH1 0x4 DUP1 CALLDATASIZE SUB DUP2 ADD SWAP1 PUSH2 0x1A0 SWAP2 SWAP1 PUSH2 0x23EF JUMP JUMPDEST PUSH2 0x923 JUMP JUMPDEST PUSH1 0x40 MLOAD PUSH2 0x1B2 SWAP2 SWAP1 PUSH2 0x2BA2 JUMP JUMPDEST PUSH1 0x40 MLOAD DUP1 SWAP2 SUB SWAP1 RETURN JUMPDEST CALLVALUE DUP1 ISZERO PUSH2 0x1C7 JUMPI PUSH1 0x0 DUP1 REVERT JUMPDEST POP PUSH2 0x1E2 PUSH1 0x4 DUP1 CALLDATASIZE SUB DUP2 ADD SWAP1 PUSH2 0x1DD SWAP2 SWAP1 PUSH2 0x23EF JUMP JUMPDEST PUSH2 0xDC8 JUMP JUMPDEST PUSH1 0x40 MLOAD PUSH2 0x1EF SWAP2 SWAP1 PUSH2 0x2D1D JUMP JUMPDEST PUSH1 0x40 MLOAD DUP1 SWAP2 SUB SWAP1 RETURN JUMPDEST CALLVALUE DUP1 ISZERO PUSH2 0x204 JUMPI PUSH1 0x0 DUP1 REVERT JUMPDEST POP PUSH2 0x21F PUSH1 0x4 DUP1 CALLDATASIZE SUB DUP2 ADD SWAP1 PUSH2 0x21A SWAP2 SWAP1 PUSH2 0x23EF JUMP JUMPDEST PUSH2 0x10E8 JUMP JUMPDEST PUSH1 0x40 MLOAD PUSH2 0x22C SWAP2 SWAP1 PUSH2 0x2BA2 JUMP JUMPDEST PUSH1 0x40 MLOAD DUP1 SWAP2 SUB SWAP1 RETURN JUMPDEST CALLVALUE DUP1 ISZERO PUSH2 0x241 JUMPI PUSH1 0x0 DUP1 REVERT JUMPDEST POP PUSH2 0x24A PUSH2 0x129E JUMP JUMPDEST PUSH1 0x40 MLOAD PUSH2 0x259 SWAP4 SWAP3 SWAP2 SWAP1 PUSH2 0x2E86 JUMP JUMPDEST PUSH1 0x40 MLOAD DUP1 SWAP2 SUB SWAP1 RETURN JUMPDEST CALLVALUE DUP1 ISZERO PUSH2 0x26E JUMPI PUSH1 0x0 DUP1 REVERT JUMPDEST POP PUSH2 0x289 PUSH1 0x4 DUP1 CALLDATASIZE SUB DUP2 ADD SWAP1 PUSH2 0x284 SWAP2 SWAP1 PUSH2 0x23EF JUMP JUMPDEST PUSH2 0x12B6 JUMP JUMPDEST PUSH1 0x40 MLOAD PUSH2 0x296 SWAP2 SWAP1 PUSH2 0x2BA2 JUMP JUMPDEST PUSH1 0x40 MLOAD DUP1 SWAP2 SUB SWAP1 RETURN JUMPDEST CALLVALUE DUP1 ISZERO PUSH2 0x2AB JUMPI PUSH1 0x0 DUP1 REVERT JUMPDEST POP PUSH2 0x2B4 PUSH2 0x1414 JUMP JUMPDEST PUSH1 0x40 MLOAD PUSH2 0x2C1 SWAP2 SWAP1 PUSH2 0x2D3F JUMP JUMPDEST PUSH1 0x40 MLOAD DUP1 SWAP2 SUB SWAP1 RETURN JUMPDEST CALLVALUE DUP1 ISZERO PUSH2 0x2D6 JUMPI PUSH1 0x0 DUP1 REVERT JUMPDEST POP PUSH2 0x2DF PUSH2 0x141A JUMP JUMPDEST PUSH1 0x40 MLOAD PUSH2 0x2EC SWAP2 SWAP1 PUSH2 0x2B43 JUMP JUMPDEST PUSH1 0x40 MLOAD DUP1 SWAP2 SUB SWAP1 RETURN JUMPDEST CALLVALUE DUP1 ISZERO PUSH2 0x301 JUMPI PUSH1 0x0 DUP1 REVERT JUMPDEST POP PUSH2 0x31C PUSH1 0x4 DUP1 CALLDATASIZE SUB DUP2 ADD SWAP1 PUSH2 0x317 SWAP2 SWAP1 PUSH2 0x23EF JUMP JUMPDEST PUSH2 0x143E JUMP JUMPDEST STOP JUMPDEST CALLVALUE DUP1 ISZERO PUSH2 0x32A JUMPI PUSH1 0x0 DUP1 REVERT JUMPDEST POP PUSH2 0x333 PUSH2 0x14D6 JUMP JUMPDEST PUSH1 0x40 MLOAD PUSH2 0x340 SWAP2 SWAP1 PUSH2 0x2D3F JUMP JUMPDEST PUSH1 0x40 MLOAD DUP1 SWAP2 SUB SWAP1 RETURN JUMPDEST CALLVALUE DUP1 ISZERO PUSH2 0x355 JUMPI PUSH1 0x0 DUP1 REVERT JUMPDEST POP PUSH2 0x370 PUSH1 0x4 DUP1 CALLDATASIZE SUB DUP2 ADD SWAP1 PUSH2 0x36B SWAP2 SWAP1 PUSH2 0x23EF JUMP JUMPDEST PUSH2 0x14DC JUMP JUMPDEST PUSH1 0x40 MLOAD PUSH2 0x37D SWAP2 SWAP1 PUSH2 0x2BA2 JUMP JUMPDEST PUSH1 0x40 MLOAD DUP1 SWAP2 SUB SWAP1 RETURN JUMPDEST CALLVALUE DUP1 ISZERO PUSH2 0x392 JUMPI PUSH1 0x0 DUP1 REVERT JUMPDEST POP PUSH2 0x3AD PUSH1 0x4 DUP1 CALLDATASIZE SUB DUP2 ADD SWAP1 PUSH2 0x3A8 SWAP2 SWAP1 PUSH2 0x23EF JUMP JUMPDEST PUSH2 0x14FC JUMP JUMPDEST PUSH1 0x40 MLOAD PUSH2 0x3BA SWAP2 SWAP1 PUSH2 0x2B80 JUMP JUMPDEST PUSH1 0x40 MLOAD DUP1 SWAP2 SUB SWAP1 RETURN JUMPDEST CALLVALUE DUP1 ISZERO PUSH2 0x3CF JUMPI PUSH1 0x0 DUP1 REVERT JUMPDEST POP PUSH2 0x3EA PUSH1 0x4 DUP1 CALLDATASIZE SUB DUP2 ADD SWAP1 PUSH2 0x3E5 SWAP2 SWAP1 PUSH2 0x241C JUMP JUMPDEST PUSH2 0x15F3 JUMP JUMPDEST PUSH1 0x40 MLOAD PUSH2 0x3F7 SWAP2 SWAP1 PUSH2 0x2BA2 JUMP JUMPDEST PUSH1 0x40 MLOAD DUP1 SWAP2 SUB SWAP1 RETURN JUMPDEST CALLVALUE DUP1 ISZERO PUSH2 0x40C JUMPI PUSH1 0x0 DUP1 REVERT JUMPDEST POP PUSH2 0x427 PUSH1 0x4 DUP1 CALLDATASIZE SUB DUP2 ADD SWAP1 PUSH2 0x422 SWAP2 SWAP1 PUSH2 0x2320 JUMP JUMPDEST PUSH2 0x18A9 JUMP JUMPDEST PUSH1 0x40 MLOAD PUSH2 0x434 SWAP2 SWAP1 PUSH2 0x2BA2 JUMP JUMPDEST PUSH1 0x40 MLOAD DUP1 SWAP2 SUB SWAP1 RETURN JUMPDEST PUSH1 0x2 SLOAD DUP2 JUMP JUMPDEST PUSH1 0x0 DUP1 PUSH1 0x4 DUP2 GT ISZERO PUSH2 0x458 JUMPI PUSH2 0x457 PUSH2 0x328B JUMP JUMPDEST JUMPDEST PUSH1 0x7 DUP4 DUP2 SLOAD DUP2 LT PUSH2 0x46C JUMPI PUSH2 0x46B PUSH2 0x32E9 JUMP JUMPDEST JUMPDEST SWAP1 PUSH1 0x0 MSTORE PUSH1 0x20 PUSH1 0x0 KECCAK256 SWAP1 PUSH1 0xB MUL ADD PUSH1 0xA ADD PUSH1 0x0 SWAP1 SLOAD SWAP1 PUSH2 0x100 EXP SWAP1 DIV PUSH1 0xFF AND PUSH1 0x4 DUP2 GT ISZERO PUSH2 0x49D JUMPI PUSH2 0x49C PUSH2 0x328B JUMP JUMPDEST JUMPDEST EQ PUSH2 0x4DD JUMPI PUSH1 0x40 MLOAD PUSH32 0x8C379A000000000000000000000000000000000000000000000000000000000 DUP2 MSTORE PUSH1 0x4 ADD PUSH2 0x4D4 SWAP1 PUSH2 0x2C5D JUMP JUMPDEST PUSH1 0x40 MLOAD DUP1 SWAP2 SUB SWAP1 REVERT JUMPDEST PUSH1 0x7 DUP3 DUP2 SLOAD DUP2 LT PUSH2 0x4F1 JUMPI PUSH2 0x4F0 PUSH2 0x32E9 JUMP JUMPDEST JUMPDEST SWAP1 PUSH1 0x0 MSTORE PUSH1 0x20 PUSH1 0x0 KECCAK256 SWAP1 PUSH1 0xB MUL ADD PUSH1 0x1 ADD PUSH1 0x0 SWAP1 SLOAD SWAP1 PUSH2 0x100 EXP SWAP1 DIV PUSH20 0xFFFFFFFFFFFFFFFFFFFFFFFFFFFFFFFFFFFFFFFF AND PUSH20 0xFFFFFFFFFFFFFFFFFFFFFFFFFFFFFFFFFFFFFFFF AND CALLER PUSH20 0xFFFFFFFFFFFFFFFFFFFFFFFFFFFFFFFFFFFFFFFF AND EQ PUSH2 0x590 JUMPI PUSH1 0x40 MLOAD PUSH32 0x8C379A000000000000000000000000000000000000000000000000000000000 DUP2 MSTORE PUSH1 0x4 ADD PUSH2 0x587 SWAP1 PUSH2 0x2C1D JUMP JUMPDEST PUSH1 0x40 MLOAD DUP1 SWAP2 SUB SWAP1 REVERT JUMPDEST PUSH1 0x3 PUSH1 0x7 DUP4 DUP2 SLOAD DUP2 LT PUSH2 0x5A6 JUMPI PUSH2 0x5A5 PUSH2 0x32E9 JUMP JUMPDEST JUMPDEST SWAP1 PUSH1 0x0 MSTORE PUSH1 0x20 PUSH1 0x0 KECCAK256 SWAP1 PUSH1 0xB MUL ADD PUSH1 0xA ADD PUSH1 0x0 PUSH2 0x100 EXP DUP2 SLOAD DUP2 PUSH1 0xFF MUL NOT AND SWAP1 DUP4 PUSH1 0x4 DUP2 GT ISZERO PUSH2 0x5D9 JUMPI PUSH2 0x5D8 PUSH2 0x328B JUMP JUMPDEST JUMPDEST MUL OR SWAP1 SSTORE POP PUSH2 0x5E7 DUP3 PUSH2 0x1DB1 JUMP JUMPDEST CALLER PUSH20 0xFFFFFFFFFFFFFFFFFFFFFFFFFFFFFFFFFFFFFFFF AND PUSH32 0xAEE8E5D3BBB2F71A951B5632CEE20F7AC487B9F8AB4F66A236F7694B13AF7C6A DUP4 TIMESTAMP PUSH1 0x40 MLOAD PUSH2 0x62F SWAP3 SWAP2 SWAP1 PUSH2 0x2D96 JUMP JUMPDEST PUSH1 0x40 MLOAD DUP1 SWAP2 SUB SWAP1 LOG2 PUSH1 0x1 SWAP1 POP SWAP2 SWAP1 POP JUMP JUMPDEST PUSH1 0x60 PUSH1 0x7 DUP1 SLOAD DUP1 PUSH1 0x20 MUL PUSH1 0x20 ADD PUSH1 0x40 MLOAD SWAP1 DUP2 ADD PUSH1 0x40 MSTORE DUP1 SWAP3 SWAP2 SWAP1 DUP2 DUP2 MSTORE PUSH1 0x20 ADD PUSH1 0x0 SWAP1 JUMPDEST DUP3 DUP3 LT ISZERO PUSH2 0x91A JUMPI DUP4 DUP3 SWAP1 PUSH1 0x0 MSTORE PUSH1 0x20 PUSH1 0x0 KECCAK256 SWAP1 PUSH1 0xB MUL ADD PUSH1 0x40 MLOAD DUP1 PUSH2 0x160 ADD PUSH1 0x40 MSTORE SWAP1 DUP2 PUSH1 0x0 DUP3 ADD SLOAD DUP2 MSTORE PUSH1 0x20 ADD PUSH1 0x1 DUP3 ADD PUSH1 0x0 SWAP1 SLOAD SWAP1 PUSH2 0x100 EXP SWAP1 DIV PUSH20 0xFFFFFFFFFFFFFFFFFFFFFFFFFFFFFFFFFFFFFFFF AND PUSH20 0xFFFFFFFFFFFFFFFFFFFFFFFFFFFFFFFFFFFFFFFF AND PUSH20 0xFFFFFFFFFFFFFFFFFFFFFFFFFFFFFFFFFFFFFFFF AND DUP2 MSTORE PUSH1 0x20 ADD PUSH1 0x2 DUP3 ADD DUP1 SLOAD PUSH2 0x6F8 SWAP1 PUSH2 0x3181 JUMP JUMPDEST DUP1 PUSH1 0x1F ADD PUSH1 0x20 DUP1 SWAP2 DIV MUL PUSH1 0x20 ADD PUSH1 0x40 MLOAD SWAP1 DUP2 ADD PUSH1 0x40 MSTORE DUP1 SWAP3 SWAP2 SWAP1 DUP2 DUP2 MSTORE PUSH1 0x20 ADD DUP3 DUP1 SLOAD PUSH2 0x724 SWAP1 PUSH2 0x3181 JUMP JUMPDEST DUP1 ISZERO PUSH2 0x771 JUMPI DUP1 PUSH1 0x1F LT PUSH2 0x746 JUMPI PUSH2 0x100 DUP1 DUP4 SLOAD DIV MUL DUP4 MSTORE SWAP2 PUSH1 0x20 ADD SWAP2 PUSH2 0x771 JUMP JUMPDEST DUP3 ADD SWAP2 SWAP1 PUSH1 0x0 MSTORE PUSH1 0x20 PUSH1 0x0 KECCAK256 SWAP1 JUMPDEST DUP2 SLOAD DUP2 MSTORE SWAP1 PUSH1 0x1 ADD SWAP1 PUSH1 0x20 ADD DUP1 DUP4 GT PUSH2 0x754 JUMPI DUP3 SWAP1 SUB PUSH1 0x1F AND DUP3 ADD SWAP2 JUMPDEST POP POP POP POP POP DUP2 MSTORE PUSH1 0x20 ADD PUSH1 0x3 DUP3 ADD DUP1 SLOAD PUSH2 0x78A SWAP1 PUSH2 0x3181 JUMP JUMPDEST DUP1 PUSH1 0x1F ADD PUSH1 0x20 DUP1 SWAP2 DIV MUL PUSH1 0x20 ADD PUSH1 0x40 MLOAD SWAP1 DUP2 ADD PUSH1 0x40 MSTORE DUP1 SWAP3 SWAP2 SWAP1 DUP2 DUP2 MSTORE PUSH1 0x20 ADD DUP3 DUP1 SLOAD PUSH2 0x7B6 SWAP1 PUSH2 0x3181 JUMP JUMPDEST DUP1 ISZERO PUSH2 0x803 JUMPI DUP1 PUSH1 0x1F LT PUSH2 0x7D8 JUMPI PUSH2 0x100 DUP1 DUP4 SLOAD DIV MUL DUP4 MSTORE SWAP2 PUSH1 0x20 ADD SWAP2 PUSH2 0x803 JUMP JUMPDEST DUP3 ADD SWAP2 SWAP1 PUSH1 0x0 MSTORE PUSH1 0x20 PUSH1 0x0 KECCAK256 SWAP1 JUMPDEST DUP2 SLOAD DUP2 MSTORE SWAP1 PUSH1 0x1 ADD SWAP1 PUSH1 0x20 ADD DUP1 DUP4 GT PUSH2 0x7E6 JUMPI DUP3 SWAP1 SUB PUSH1 0x1F AND DUP3 ADD SWAP2 JUMPDEST POP POP POP POP POP DUP2 MSTORE PUSH1 0x20 ADD PUSH1 0x4 DUP3 ADD DUP1 SLOAD PUSH2 0x81C SWAP1 PUSH2 0x3181 JUMP JUMPDEST DUP1 PUSH1 0x1F ADD PUSH1 0x20 DUP1 SWAP2 DIV MUL PUSH1 0x20 ADD PUSH1 0x40 MLOAD SWAP1 DUP2 ADD PUSH1 0x40 MSTORE DUP1 SWAP3 SWAP2 SWAP1 DUP2 DUP2 MSTORE PUSH1 0x20 ADD DUP3 DUP1 SLOAD PUSH2 0x848 SWAP1 PUSH2 0x3181 JUMP JUMPDEST DUP1 ISZERO PUSH2 0x895 JUMPI DUP1 PUSH1 0x1F LT PUSH2 0x86A JUMPI PUSH2 0x100 DUP1 DUP4 SLOAD DIV MUL DUP4 MSTORE SWAP2 PUSH1 0x20 ADD SWAP2 PUSH2 0x895 JUMP JUMPDEST DUP3 ADD SWAP2 SWAP1 PUSH1 0x0 MSTORE PUSH1 0x20 PUSH1 0x0 KECCAK256 SWAP1 JUMPDEST DUP2 SLOAD DUP2 MSTORE SWAP1 PUSH1 0x1 ADD SWAP1 PUSH1 0x20 ADD DUP1 DUP4 GT PUSH2 0x878 JUMPI DUP3 SWAP1 SUB PUSH1 0x1F AND DUP3 ADD SWAP2 JUMPDEST POP POP POP POP POP DUP2 MSTORE PUSH1 0x20 ADD PUSH1 0x5 DUP3 ADD SLOAD DUP2 MSTORE PUSH1 0x20 ADD PUSH1 0x6 DUP3 ADD SLOAD DUP2 MSTORE PUSH1 0x20 ADD PUSH1 0x7 DUP3 ADD SLOAD DUP2 MSTORE PUSH1 0x20 ADD PUSH1 0x8 DUP3 ADD SLOAD DUP2 MSTORE PUSH1 0x20 ADD PUSH1 0x9 DUP3 ADD SLOAD DUP2 MSTORE PUSH1 0x20 ADD PUSH1 0xA DUP3 ADD PUSH1 0x0 SWAP1 SLOAD SWAP1 PUSH2 0x100 EXP SWAP1 DIV PUSH1 0xFF AND PUSH1 0x4 DUP2 GT ISZERO PUSH2 0x8F5 JUMPI PUSH2 0x8F4 PUSH2 0x328B JUMP JUMPDEST JUMPDEST PUSH1 0x4 DUP2 GT ISZERO PUSH2 0x907 JUMPI PUSH2 0x906 PUSH2 0x328B JUMP JUMPDEST JUMPDEST DUP2 MSTORE POP POP DUP2 MSTORE PUSH1 0x20 ADD SWAP1 PUSH1 0x1 ADD SWAP1 PUSH2 0x664 JUMP JUMPDEST POP POP POP POP SWAP1 POP SWAP1 JUMP JUMPDEST PUSH1 0x0 DUP1 CALLVALUE GT PUSH2 0x967 JUMPI PUSH1 0x40 MLOAD PUSH32 0x8C379A000000000000000000000000000000000000000000000000000000000 DUP2 MSTORE PUSH1 0x4 ADD PUSH2 0x95E SWAP1 PUSH2 0x2CFD JUMP JUMPDEST PUSH1 0x40 MLOAD DUP1 SWAP2 SUB SWAP1 REVERT JUMPDEST PUSH1 0xA PUSH1 0x0 DUP4 DUP2 MSTORE PUSH1 0x20 ADD SWAP1 DUP2 MSTORE PUSH1 0x20 ADD PUSH1 0x0 KECCAK256 PUSH1 0x0 SWAP1 SLOAD SWAP1 PUSH2 0x100 EXP SWAP1 DIV PUSH1 0xFF AND PUSH2 0x9C7 JUMPI PUSH1 0x40 MLOAD PUSH32 0x8C379A000000000000000000000000000000000000000000000000000000000 DUP2 MSTORE PUSH1 0x4 ADD PUSH2 0x9BE SWAP1 PUSH2 0x2BFD JUMP JUMPDEST PUSH1 0x40 MLOAD DUP1 SWAP2 SUB SWAP1 REVERT JUMPDEST PUSH1 0x0 PUSH1 0x4 DUP2 GT ISZERO PUSH2 0x9DB JUMPI PUSH2 0x9DA PUSH2 0x328B JUMP JUMPDEST JUMPDEST PUSH1 0x7 DUP4 DUP2 SLOAD DUP2 LT PUSH2 0x9EF JUMPI PUSH2 0x9EE PUSH2 0x32E9 JUMP JUMPDEST JUMPDEST SWAP1 PUSH1 0x0 MSTORE PUSH1 0x20 PUSH1 0x0 KECCAK256 SWAP1 PUSH1 0xB MUL ADD PUSH1 0xA ADD PUSH1 0x0 SWAP1 SLOAD SWAP1 PUSH2 0x100 EXP SWAP1 DIV PUSH1 0xFF AND PUSH1 0x4 DUP2 GT ISZERO PUSH2 0xA20 JUMPI PUSH2 0xA1F PUSH2 0x328B JUMP JUMPDEST JUMPDEST EQ PUSH2 0xA60 JUMPI PUSH1 0x40 MLOAD PUSH32 0x8C379A000000000000000000000000000000000000000000000000000000000 DUP2 MSTORE PUSH1 0x4 ADD PUSH2 0xA57 SWAP1 PUSH2 0x2C5D JUMP JUMPDEST PUSH1 0x40 MLOAD DUP1 SWAP2 SUB SWAP1 REVERT JUMPDEST PUSH1 0x1 PUSH1 0x4 PUSH1 0x1 ADD PUSH1 0x0 DUP3 DUP3 SLOAD PUSH2 0xA76 SWAP2 SWAP1 PUSH2 0x2FBD JUMP JUMPDEST SWAP3 POP POP DUP2 SWAP1 SSTORE POP CALLVALUE PUSH1 0x4 PUSH1 0x2 ADD PUSH1 0x0 DUP3 DUP3 SLOAD PUSH2 0xA92 SWAP2 SWAP1 PUSH2 0x2FBD JUMP JUMPDEST SWAP3 POP POP DUP2 SWAP1 SSTORE POP CALLVALUE PUSH1 0x7 DUP4 DUP2 SLOAD DUP2 LT PUSH2 0xAAE JUMPI PUSH2 0xAAD PUSH2 0x32E9 JUMP JUMPDEST JUMPDEST SWAP1 PUSH1 0x0 MSTORE PUSH1 0x20 PUSH1 0x0 KECCAK256 SWAP1 PUSH1 0xB MUL ADD PUSH1 0x6 ADD PUSH1 0x0 DUP3 DUP3 SLOAD PUSH2 0xACE SWAP2 SWAP1 PUSH2 0x2FBD JUMP JUMPDEST SWAP3 POP POP DUP2 SWAP1 SSTORE POP PUSH1 0x1 PUSH1 0x7 DUP4 DUP2 SLOAD DUP2 LT PUSH2 0xAEB JUMPI PUSH2 0xAEA PUSH2 0x32E9 JUMP JUMPDEST JUMPDEST SWAP1 PUSH1 0x0 MSTORE PUSH1 0x20 PUSH1 0x0 KECCAK256 SWAP1 PUSH1 0xB MUL ADD PUSH1 0x9 ADD DUP2 SWAP1 SSTORE POP PUSH1 0x9 PUSH1 0x0 DUP4 DUP2 MSTORE PUSH1 0x20 ADD SWAP1 DUP2 MSTORE PUSH1 0x20 ADD PUSH1 0x0 KECCAK256 PUSH1 0x40 MLOAD DUP1 PUSH1 0x80 ADD PUSH1 0x40 MSTORE DUP1 CALLER PUSH20 0xFFFFFFFFFFFFFFFFFFFFFFFFFFFFFFFFFFFFFFFF AND DUP2 MSTORE PUSH1 0x20 ADD CALLVALUE DUP2 MSTORE PUSH1 0x20 ADD TIMESTAMP DUP2 MSTORE PUSH1 0x20 ADD PUSH1 0x0 ISZERO ISZERO DUP2 MSTORE POP SWAP1 DUP1 PUSH1 0x1 DUP2 SLOAD ADD DUP1 DUP3 SSTORE DUP1 SWAP2 POP POP PUSH1 0x1 SWAP1 SUB SWAP1 PUSH1 0x0 MSTORE PUSH1 0x20 PUSH1 0x0 KECCAK256 SWAP1 PUSH1 0x4 MUL ADD PUSH1 0x0 SWAP1 SWAP2 SWAP1 SWAP2 SWAP1 SWAP2 POP PUSH1 0x0 DUP3 ADD MLOAD DUP2 PUSH1 0x0 ADD PUSH1 0x0 PUSH2 0x100 EXP DUP2 SLOAD DUP2 PUSH20 0xFFFFFFFFFFFFFFFFFFFFFFFFFFFFFFFFFFFFFFFF MUL NOT AND SWAP1 DUP4 PUSH20 0xFFFFFFFFFFFFFFFFFFFFFFFFFFFFFFFFFFFFFFFF AND MUL OR SWAP1 SSTORE POP PUSH1 0x20 DUP3 ADD MLOAD DUP2 PUSH1 0x1 ADD SSTORE PUSH1 0x40 DUP3 ADD MLOAD DUP2 PUSH1 0x2 ADD SSTORE PUSH1 0x60 DUP3 ADD MLOAD DUP2 PUSH1 0x3 ADD PUSH1 0x0 PUSH2 0x100 EXP DUP2 SLOAD DUP2 PUSH1 0xFF MUL NOT AND SWAP1 DUP4 ISZERO ISZERO MUL OR SWAP1 SSTORE POP POP POP CALLER PUSH20 0xFFFFFFFFFFFFFFFFFFFFFFFFFFFFFFFFFFFFFFFF AND PUSH32 0xAEE8E5D3BBB2F71A951B5632CEE20F7AC487B9F8AB4F66A236F7694B13AF7C6A DUP4 TIMESTAMP PUSH1 0x40 MLOAD PUSH2 0xC3B SWAP3 SWAP2 SWAP1 PUSH2 0x2D5A JUMP JUMPDEST PUSH1 0x40 MLOAD DUP1 SWAP2 SUB SWAP1 LOG2 PUSH1 0x7 DUP3 DUP2 SLOAD DUP2 LT PUSH2 0xC57 JUMPI PUSH2 0xC56 PUSH2 0x32E9 JUMP JUMPDEST JUMPDEST SWAP1 PUSH1 0x0 MSTORE PUSH1 0x20 PUSH1 0x0 KECCAK256 SWAP1 PUSH1 0xB MUL ADD PUSH1 0x5 ADD SLOAD PUSH1 0x7 DUP4 DUP2 SLOAD DUP2 LT PUSH2 0xC7D JUMPI PUSH2 0xC7C PUSH2 0x32E9 JUMP JUMPDEST JUMPDEST SWAP1 PUSH1 0x0 MSTORE PUSH1 0x20 PUSH1 0x0 KECCAK256 SWAP1 PUSH1 0xB MUL ADD PUSH1 0x6 ADD SLOAD LT PUSH2 0xD32 JUMPI PUSH1 0x1 PUSH1 0x7 DUP4 DUP2 SLOAD DUP2 LT PUSH2 0xCAA JUMPI PUSH2 0xCA9 PUSH2 0x32E9 JUMP JUMPDEST JUMPDEST SWAP1 PUSH1 0x0 MSTORE PUSH1 0x20 PUSH1 0x0 KECCAK256 SWAP1 PUSH1 0xB MUL ADD PUSH1 0xA ADD PUSH1 0x0 PUSH2 0x100 EXP DUP2 SLOAD DUP2 PUSH1 0xFF MUL NOT AND SWAP1 DUP4 PUSH1 0x4 DUP2 GT ISZERO PUSH2 0xCDD JUMPI PUSH2 0xCDC PUSH2 0x328B JUMP JUMPDEST JUMPDEST MUL OR SWAP1 SSTORE POP PUSH1 0x7 DUP3 DUP2 SLOAD DUP2 LT PUSH2 0xCF6 JUMPI PUSH2 0xCF5 PUSH2 0x32E9 JUMP JUMPDEST JUMPDEST SWAP1 PUSH1 0x0 MSTORE PUSH1 0x20 PUSH1 0x0 KECCAK256 SWAP1 PUSH1 0xB MUL ADD PUSH1 0x6 ADD SLOAD PUSH1 0x3 PUSH1 0x0 DUP3 DUP3 SLOAD PUSH2 0xD19 SWAP2 SWAP1 PUSH2 0x2FBD JUMP JUMPDEST SWAP3 POP POP DUP2 SWAP1 SSTORE POP PUSH2 0xD29 DUP3 PUSH2 0x1F4E JUMP JUMPDEST PUSH1 0x1 SWAP1 POP PUSH2 0xDC3 JUMP JUMPDEST PUSH1 0x7 DUP3 DUP2 SLOAD DUP2 LT PUSH2 0xD46 JUMPI PUSH2 0xD45 PUSH2 0x32E9 JUMP JUMPDEST JUMPDEST SWAP1 PUSH1 0x0 MSTORE PUSH1 0x20 PUSH1 0x0 KECCAK256 SWAP1 PUSH1 0xB MUL ADD PUSH1 0x8 ADD SLOAD TIMESTAMP LT PUSH2 0xDBE JUMPI PUSH1 0x2 PUSH1 0x7 DUP4 DUP2 SLOAD DUP2 LT PUSH2 0xD74 JUMPI PUSH2 0xD73 PUSH2 0x32E9 JUMP JUMPDEST JUMPDEST SWAP1 PUSH1 0x0 MSTORE PUSH1 0x20 PUSH1 0x0 KECCAK256 SWAP1 PUSH1 0xB MUL ADD PUSH1 0xA ADD PUSH1 0x0 PUSH2 0x100 EXP DUP2 SLOAD DUP2 PUSH1 0xFF MUL NOT AND SWAP1 DUP4 PUSH1 0x4 DUP2 GT ISZERO PUSH2 0xDA7 JUMPI PUSH2 0xDA6 PUSH2 0x328B JUMP JUMPDEST JUMPDEST MUL OR SWAP1 SSTORE POP PUSH2 0xDB5 DUP3 PUSH2 0x1DB1 JUMP JUMPDEST PUSH1 0x1 SWAP1 POP PUSH2 0xDC3 JUMP JUMPDEST PUSH1 0x1 SWAP1 POP JUMPDEST SWAP2 SWAP1 POP JUMP JUMPDEST PUSH2 0xDD0 PUSH2 0x2176 JUMP JUMPDEST PUSH1 0xA PUSH1 0x0 DUP4 DUP2 MSTORE PUSH1 0x20 ADD SWAP1 DUP2 MSTORE PUSH1 0x20 ADD PUSH1 0x0 KECCAK256 PUSH1 0x0 SWAP1 SLOAD SWAP1 PUSH2 0x100 EXP SWAP1 DIV PUSH1 0xFF AND PUSH2 0xE30 JUMPI PUSH1 0x40 MLOAD PUSH32 0x8C379A000000000000000000000000000000000000000000000000000000000 DUP2 MSTORE PUSH1 0x4 ADD PUSH2 0xE27 SWAP1 PUSH2 0x2BFD JUMP JUMPDEST PUSH1 0x40 MLOAD DUP1 SWAP2 SUB SWAP1 REVERT JUMPDEST PUSH1 0x7 DUP3 DUP2 SLOAD DUP2 LT PUSH2 0xE44 JUMPI PUSH2 0xE43 PUSH2 0x32E9 JUMP JUMPDEST JUMPDEST SWAP1 PUSH1 0x0 MSTORE PUSH1 0x20 PUSH1 0x0 KECCAK256 SWAP1 PUSH1 0xB MUL ADD PUSH1 0x40 MLOAD DUP1 PUSH2 0x160 ADD PUSH1 0x40 MSTORE SWAP1 DUP2 PUSH1 0x0 DUP3 ADD SLOAD DUP2 MSTORE PUSH1 0x20 ADD PUSH1 0x1 DUP3 ADD PUSH1 0x0 SWAP1 SLOAD SWAP1 PUSH2 0x100 EXP SWAP1 DIV PUSH20 0xFFFFFFFFFFFFFFFFFFFFFFFFFFFFFFFFFFFFFFFF AND PUSH20 0xFFFFFFFFFFFFFFFFFFFFFFFFFFFFFFFFFFFFFFFF AND PUSH20 0xFFFFFFFFFFFFFFFFFFFFFFFFFFFFFFFFFFFFFFFF AND DUP2 MSTORE PUSH1 0x20 ADD PUSH1 0x2 DUP3 ADD DUP1 SLOAD PUSH2 0xECE SWAP1 PUSH2 0x3181 JUMP JUMPDEST DUP1 PUSH1 0x1F ADD PUSH1 0x20 DUP1 SWAP2 DIV MUL PUSH1 0x20 ADD PUSH1 0x40 MLOAD SWAP1 DUP2 ADD PUSH1 0x40 MSTORE DUP1 SWAP3 SWAP2 SWAP1 DUP2 DUP2 MSTORE PUSH1 0x20 ADD DUP3 DUP1 SLOAD PUSH2 0xEFA SWAP1 PUSH2 0x3181 JUMP JUMPDEST DUP1 ISZERO PUSH2 0xF47 JUMPI DUP1 PUSH1 0x1F LT PUSH2 0xF1C JUMPI PUSH2 0x100 DUP1 DUP4 SLOAD DIV MUL DUP4 MSTORE SWAP2 PUSH1 0x20 ADD SWAP2 PUSH2 0xF47 JUMP JUMPDEST DUP3 ADD SWAP2 SWAP1 PUSH1 0x0 MSTORE PUSH1 0x20 PUSH1 0x0 KECCAK256 SWAP1 JUMPDEST DUP2 SLOAD DUP2 MSTORE SWAP1 PUSH1 0x1 ADD SWAP1 PUSH1 0x20 ADD DUP1 DUP4 GT PUSH2 0xF2A JUMPI DUP3 SWAP1 SUB PUSH1 0x1F AND DUP3 ADD SWAP2 JUMPDEST POP POP POP POP POP DUP2 MSTORE PUSH1 0x20 ADD PUSH1 0x3 DUP3 ADD DUP1 SLOAD PUSH2 0xF60 SWAP1 PUSH2 0x3181 JUMP JUMPDEST DUP1 PUSH1 0x1F ADD PUSH1 0x20 DUP1 SWAP2 DIV MUL PUSH1 0x20 ADD PUSH1 0x40 MLOAD SWAP1 DUP2 ADD PUSH1 0x40 MSTORE DUP1 SWAP3 SWAP2 SWAP1 DUP2 DUP2 MSTORE PUSH1 0x20 ADD DUP3 DUP1 SLOAD PUSH2 0xF8C SWAP1 PUSH2 0x3181 JUMP JUMPDEST DUP1 ISZERO PUSH2 0xFD9 JUMPI DUP1 PUSH1 0x1F LT PUSH2 0xFAE JUMPI PUSH2 0x100 DUP1 DUP4 SLOAD DIV MUL DUP4 MSTORE SWAP2 PUSH1 0x20 ADD SWAP2 PUSH2 0xFD9 JUMP JUMPDEST DUP3 ADD SWAP2 SWAP1 PUSH1 0x0 MSTORE PUSH1 0x20 PUSH1 0x0 KECCAK256 SWAP1 JUMPDEST DUP2 SLOAD DUP2 MSTORE SWAP1 PUSH1 0x1 ADD SWAP1 PUSH1 0x20 ADD DUP1 DUP4 GT PUSH2 0xFBC JUMPI DUP3 SWAP1 SUB PUSH1 0x1F AND DUP3 ADD SWAP2 JUMPDEST POP POP POP POP POP DUP2 MSTORE PUSH1 0x20 ADD PUSH1 0x4 DUP3 ADD DUP1 SLOAD PUSH2 0xFF2 SWAP1 PUSH2 0x3181 JUMP JUMPDEST DUP1 PUSH1 0x1F ADD PUSH1 0x20 DUP1 SWAP2 DIV MUL PUSH1 0x20 ADD PUSH1 0x40 MLOAD SWAP1 DUP2 ADD PUSH1 0x40 MSTORE DUP1 SWAP3 SWAP2 SWAP1 DUP2 DUP2 MSTORE PUSH1 0x20 ADD DUP3 DUP1 SLOAD PUSH2 0x101E SWAP1 PUSH2 0x3181 JUMP JUMPDEST DUP1 ISZERO PUSH2 0x106B JUMPI DUP1 PUSH1 0x1F LT PUSH2 0x1040 JUMPI PUSH2 0x100 DUP1 DUP4 SLOAD DIV MUL DUP4 MSTORE SWAP2 PUSH1 0x20 ADD SWAP2 PUSH2 0x106B JUMP JUMPDEST DUP3 ADD SWAP2 SWAP1 PUSH1 0x0 MSTORE PUSH1 0x20 PUSH1 0x0 KECCAK256 SWAP1 JUMPDEST DUP2 SLOAD DUP2 MSTORE SWAP1 PUSH1 0x1 ADD SWAP1 PUSH1 0x20 ADD DUP1 DUP4 GT PUSH2 0x104E JUMPI DUP3 SWAP1 SUB PUSH1 0x1F AND DUP3 ADD SWAP2 JUMPDEST POP POP POP POP POP DUP2 MSTORE PUSH1 0x20 ADD PUSH1 0x5 DUP3 ADD SLOAD DUP2 MSTORE PUSH1 0x20 ADD PUSH1 0x6 DUP3 ADD SLOAD DUP2 MSTORE PUSH1 0x20 ADD PUSH1 0x7 DUP3 ADD SLOAD DUP2 MSTORE PUSH1 0x20 ADD PUSH1 0x8 DUP3 ADD SLOAD DUP2 MSTORE PUSH1 0x20 ADD PUSH1 0x9 DUP3 ADD SLOAD DUP2 MSTORE PUSH1 0x20 ADD PUSH1 0xA DUP3 ADD PUSH1 0x0 SWAP1 SLOAD SWAP1 PUSH2 0x100 EXP SWAP1 DIV PUSH1 0xFF AND PUSH1 0x4 DUP2 GT ISZERO PUSH2 0x10CB JUMPI PUSH2 0x10CA PUSH2 0x328B JUMP JUMPDEST JUMPDEST PUSH1 0x4 DUP2 GT ISZERO PUSH2 0x10DD JUMPI PUSH2 0x10DC PUSH2 0x328B JUMP JUMPDEST JUMPDEST DUP2 MSTORE POP POP SWAP1 POP SWAP2 SWAP1 POP JUMP JUMPDEST PUSH1 0x0 PUSH1 0x1 PUSH1 0x4 DUP2 GT ISZERO PUSH2 0x10FE JUMPI PUSH2 0x10FD PUSH2 0x328B JUMP JUMPDEST JUMPDEST PUSH1 0x7 DUP4 DUP2 SLOAD DUP2 LT PUSH2 0x1112 JUMPI PUSH2 0x1111 PUSH2 0x32E9 JUMP JUMPDEST JUMPDEST SWAP1 PUSH1 0x0 MSTORE PUSH1 0x20 PUSH1 0x0 KECCAK256 SWAP1 PUSH1 0xB MUL ADD PUSH1 0xA ADD PUSH1 0x0 SWAP1 SLOAD SWAP1 PUSH2 0x100 EXP SWAP1 DIV PUSH1 0xFF AND PUSH1 0x4 DUP2 GT ISZERO PUSH2 0x1143 JUMPI PUSH2 0x1142 PUSH2 0x328B JUMP JUMPDEST JUMPDEST EQ PUSH2 0x1183 JUMPI PUSH1 0x40 MLOAD PUSH32 0x8C379A000000000000000000000000000000000000000000000000000000000 DUP2 MSTORE PUSH1 0x4 ADD PUSH2 0x117A SWAP1 PUSH2 0x2BBD JUMP JUMPDEST PUSH1 0x40 MLOAD DUP1 SWAP2 SUB SWAP1 REVERT JUMPDEST PUSH1 0x7 DUP3 DUP2 SLOAD DUP2 LT PUSH2 0x1197 JUMPI PUSH2 0x1196 PUSH2 0x32E9 JUMP JUMPDEST JUMPDEST SWAP1 PUSH1 0x0 MSTORE PUSH1 0x20 PUSH1 0x0 KECCAK256 SWAP1 PUSH1 0xB MUL ADD PUSH1 0x1 ADD PUSH1 0x0 SWAP1 SLOAD SWAP1 PUSH2 0x100 EXP SWAP1 DIV PUSH20 0xFFFFFFFFFFFFFFFFFFFFFFFFFFFFFFFFFFFFFFFF AND PUSH20 0xFFFFFFFFFFFFFFFFFFFFFFFFFFFFFFFFFFFFFFFF AND CALLER PUSH20 0xFFFFFFFFFFFFFFFFFFFFFFFFFFFFFFFFFFFFFFFF AND EQ DUP1 PUSH2 0x124D JUMPI POP PUSH1 0x0 DUP1 SLOAD SWAP1 PUSH2 0x100 EXP SWAP1 DIV PUSH20 0xFFFFFFFFFFFFFFFFFFFFFFFFFFFFFFFFFFFFFFFF AND PUSH20 0xFFFFFFFFFFFFFFFFFFFFFFFFFFFFFFFFFFFFFFFF AND CALLER PUSH20 0xFFFFFFFFFFFFFFFFFFFFFFFFFFFFFFFFFFFFFFFF AND EQ JUMPDEST PUSH2 0x128C JUMPI PUSH1 0x40 MLOAD PUSH32 0x8C379A000000000000000000000000000000000000000000000000000000000 DUP2 MSTORE PUSH1 0x4 ADD PUSH2 0x1283 SWAP1 PUSH2 0x2C1D JUMP JUMPDEST PUSH1 0x40 MLOAD DUP1 SWAP2 SUB SWAP1 REVERT JUMPDEST PUSH2 0x1295 DUP3 PUSH2 0x1F4E JUMP JUMPDEST PUSH1 0x1 SWAP1 POP SWAP2 SWAP1 POP JUMP JUMPDEST PUSH1 0x4 DUP1 PUSH1 0x0 ADD SLOAD SWAP1 DUP1 PUSH1 0x1 ADD SLOAD SWAP1 DUP1 PUSH1 0x2 ADD SLOAD SWAP1 POP DUP4 JUMP JUMPDEST PUSH1 0x0 PUSH1 0x2 PUSH1 0x4 DUP2 GT ISZERO PUSH2 0x12CC JUMPI PUSH2 0x12CB PUSH2 0x328B JUMP JUMPDEST JUMPDEST PUSH1 0x7 DUP4 DUP2 SLOAD DUP2 LT PUSH2 0x12E0 JUMPI PUSH2 0x12DF PUSH2 0x32E9 JUMP JUMPDEST JUMPDEST SWAP1 PUSH1 0x0 MSTORE PUSH1 0x20 PUSH1 0x0 KECCAK256 SWAP1 PUSH1 0xB MUL ADD PUSH1 0xA ADD PUSH1 0x0 SWAP1 SLOAD SWAP1 PUSH2 0x100 EXP SWAP1 DIV PUSH1 0xFF AND PUSH1 0x4 DUP2 GT ISZERO PUSH2 0x1311 JUMPI PUSH2 0x1310 PUSH2 0x328B JUMP JUMPDEST JUMPDEST EQ ISZERO DUP1 PUSH2 0x1375 JUMPI POP PUSH1 0x3 PUSH1 0x4 DUP2 GT ISZERO PUSH2 0x132D JUMPI PUSH2 0x132C PUSH2 0x328B JUMP JUMPDEST JUMPDEST PUSH1 0x7 DUP4 DUP2 SLOAD DUP2 LT PUSH2 0x1341 JUMPI PUSH2 0x1340 PUSH2 0x32E9 JUMP JUMPDEST JUMPDEST SWAP1 PUSH1 0x0 MSTORE PUSH1 0x20 PUSH1 0x0 KECCAK256 SWAP1 PUSH1 0xB MUL ADD PUSH1 0xA ADD PUSH1 0x0 SWAP1 SLOAD SWAP1 PUSH2 0x100 EXP SWAP1 DIV PUSH1 0xFF AND PUSH1 0x4 DUP2 GT ISZERO PUSH2 0x1372 JUMPI PUSH2 0x1371 PUSH2 0x328B JUMP JUMPDEST JUMPDEST EQ ISZERO JUMPDEST PUSH2 0x13B4 JUMPI PUSH1 0x40 MLOAD PUSH32 0x8C379A000000000000000000000000000000000000000000000000000000000 DUP2 MSTORE PUSH1 0x4 ADD PUSH2 0x13AB SWAP1 PUSH2 0x2CBD JUMP JUMPDEST PUSH1 0x40 MLOAD DUP1 SWAP2 SUB SWAP1 REVERT JUMPDEST PUSH1 0x2 PUSH1 0x7 DUP4 DUP2 SLOAD DUP2 LT PUSH2 0x13CA JUMPI PUSH2 0x13C9 PUSH2 0x32E9 JUMP JUMPDEST JUMPDEST SWAP1 PUSH1 0x0 MSTORE PUSH1 0x20 PUSH1 0x0 KECCAK256 SWAP1 PUSH1 0xB MUL ADD PUSH1 0xA ADD PUSH1 0x0 PUSH2 0x100 EXP DUP2 SLOAD DUP2 PUSH1 0xFF MUL NOT AND SWAP1 DUP4 PUSH1 0x4 DUP2 GT ISZERO PUSH2 0x13FD JUMPI PUSH2 0x13FC PUSH2 0x328B JUMP JUMPDEST JUMPDEST MUL OR SWAP1 SSTORE POP PUSH2 0x140B DUP3 PUSH2 0x1DB1 JUMP JUMPDEST PUSH1 0x1 SWAP1 POP SWAP2 SWAP1 POP JUMP JUMPDEST PUSH1 0x1 SLOAD DUP2 JUMP JUMPDEST PUSH1 0x0 DUP1 SLOAD SWAP1 PUSH2 0x100 EXP SWAP1 DIV PUSH20 0xFFFFFFFFFFFFFFFFFFFFFFFFFFFFFFFFFFFFFFFF AND DUP2 JUMP JUMPDEST PUSH1 0x0 DUP1 SLOAD SWAP1 PUSH2 0x100 EXP SWAP1 DIV PUSH20 0xFFFFFFFFFFFFFFFFFFFFFFFFFFFFFFFFFFFFFFFF AND PUSH20 0xFFFFFFFFFFFFFFFFFFFFFFFFFFFFFFFFFFFFFFFF AND CALLER PUSH20 0xFFFFFFFFFFFFFFFFFFFFFFFFFFFFFFFFFFFFFFFF AND EQ PUSH2 0x14CC JUMPI PUSH1 0x40 MLOAD PUSH32 0x8C379A000000000000000000000000000000000000000000000000000000000 DUP2 MSTORE PUSH1 0x4 ADD PUSH2 0x14C3 SWAP1 PUSH2 0x2BDD JUMP JUMPDEST PUSH1 0x40 MLOAD DUP1 SWAP2 SUB SWAP1 REVERT JUMPDEST DUP1 PUSH1 0x1 DUP2 SWAP1 SSTORE POP POP JUMP JUMPDEST PUSH1 0x3 SLOAD DUP2 JUMP JUMPDEST PUSH1 0xA PUSH1 0x20 MSTORE DUP1 PUSH1 0x0 MSTORE PUSH1 0x40 PUSH1 0x0 KECCAK256 PUSH1 0x0 SWAP2 POP SLOAD SWAP1 PUSH2 0x100 EXP SWAP1 DIV PUSH1 0xFF AND DUP2 JUMP JUMPDEST PUSH1 0x60 PUSH1 0x9 PUSH1 0x0 DUP4 DUP2 MSTORE PUSH1 0x20 ADD SWAP1 DUP2 MSTORE PUSH1 0x20 ADD PUSH1 0x0 KECCAK256 DUP1 SLOAD DUP1 PUSH1 0x20 MUL PUSH1 0x20 ADD PUSH1 0x40 MLOAD SWAP1 DUP2 ADD PUSH1 0x40 MSTORE DUP1 SWAP3 SWAP2 SWAP1 DUP2 DUP2 MSTORE PUSH1 0x20 ADD PUSH1 0x0 SWAP1 JUMPDEST DUP3 DUP3 LT ISZERO PUSH2 0x15E8 JUMPI DUP4 DUP3 SWAP1 PUSH1 0x0 MSTORE PUSH1 0x20 PUSH1 0x0 KECCAK256 SWAP1 PUSH1 0x4 MUL ADD PUSH1 0x40 MLOAD DUP1 PUSH1 0x80 ADD PUSH1 0x40 MSTORE SWAP1 DUP2 PUSH1 0x0 DUP3 ADD PUSH1 0x0 SWAP1 SLOAD SWAP1 PUSH2 0x100 EXP SWAP1 DIV PUSH20 0xFFFFFFFFFFFFFFFFFFFFFFFFFFFFFFFFFFFFFFFF AND PUSH20 0xFFFFFFFFFFFFFFFFFFFFFFFFFFFFFFFFFFFFFFFF AND PUSH20 0xFFFFFFFFFFFFFFFFFFFFFFFFFFFFFFFFFFFFFFFF AND DUP2 MSTORE PUSH1 0x20 ADD PUSH1 0x1 DUP3 ADD SLOAD DUP2 MSTORE PUSH1 0x20 ADD PUSH1 0x2 DUP3 ADD SLOAD DUP2 MSTORE PUSH1 0x20 ADD PUSH1 0x3 DUP3 ADD PUSH1 0x0 SWAP1 SLOAD SWAP1 PUSH2 0x100 EXP SWAP1 DIV PUSH1 0xFF AND ISZERO ISZERO ISZERO ISZERO DUP2 MSTORE POP POP DUP2 MSTORE PUSH1 0x20 ADD SWAP1 PUSH1 0x1 ADD SWAP1 PUSH2 0x1531 JUMP JUMPDEST POP POP POP POP SWAP1 POP SWAP2 SWAP1 POP JUMP JUMPDEST PUSH1 0x0 PUSH1 0x7 DUP7 DUP2 SLOAD DUP2 LT PUSH2 0x1609 JUMPI PUSH2 0x1608 PUSH2 0x32E9 JUMP JUMPDEST JUMPDEST SWAP1 PUSH1 0x0 MSTORE PUSH1 0x20 PUSH1 0x0 KECCAK256 SWAP1 PUSH1 0xB MUL ADD PUSH1 0x1 ADD PUSH1 0x0 SWAP1 SLOAD SWAP1 PUSH2 0x100 EXP SWAP1 DIV PUSH20 0xFFFFFFFFFFFFFFFFFFFFFFFFFFFFFFFFFFFFFFFF AND PUSH20 0xFFFFFFFFFFFFFFFFFFFFFFFFFFFFFFFFFFFFFFFF AND CALLER PUSH20 0xFFFFFFFFFFFFFFFFFFFFFFFFFFFFFFFFFFFFFFFF AND EQ PUSH2 0x16A8 JUMPI PUSH1 0x40 MLOAD PUSH32 0x8C379A000000000000000000000000000000000000000000000000000000000 DUP2 MSTORE PUSH1 0x4 ADD PUSH2 0x169F SWAP1 PUSH2 0x2C1D JUMP JUMPDEST PUSH1 0x40 MLOAD DUP1 SWAP2 SUB SWAP1 REVERT JUMPDEST PUSH1 0x0 DUP6 MLOAD GT PUSH2 0x16EC JUMPI PUSH1 0x40 MLOAD PUSH32 0x8C379A000000000000000000000000000000000000000000000000000000000 DUP2 MSTORE PUSH1 0x4 ADD PUSH2 0x16E3 SWAP1 PUSH2 0x2C3D JUMP JUMPDEST PUSH1 0x40 MLOAD DUP1 SWAP2 SUB SWAP1 REVERT JUMPDEST PUSH1 0x0 DUP5 MLOAD GT PUSH2 0x1730 JUMPI PUSH1 0x40 MLOAD PUSH32 0x8C379A000000000000000000000000000000000000000000000000000000000 DUP2 MSTORE PUSH1 0x4 ADD PUSH2 0x1727 SWAP1 PUSH2 0x2C7D JUMP JUMPDEST PUSH1 0x40 MLOAD DUP1 SWAP2 SUB SWAP1 REVERT JUMPDEST PUSH1 0x0 DUP4 MLOAD GT PUSH2 0x1774 JUMPI PUSH1 0x40 MLOAD PUSH32 0x8C379A000000000000000000000000000000000000000000000000000000000 DUP2 MSTORE PUSH1 0x4 ADD PUSH2 0x176B SWAP1 PUSH2 0x2C9D JUMP JUMPDEST PUSH1 0x40 MLOAD DUP1 SWAP2 SUB SWAP1 REVERT JUMPDEST DUP5 PUSH1 0x7 DUP8 DUP2 SLOAD DUP2 LT PUSH2 0x1789 JUMPI PUSH2 0x1788 PUSH2 0x32E9 JUMP JUMPDEST JUMPDEST SWAP1 PUSH1 0x0 MSTORE PUSH1 0x20 PUSH1 0x0 KECCAK256 SWAP1 PUSH1 0xB MUL ADD PUSH1 0x2 ADD SWAP1 DUP1 MLOAD SWAP1 PUSH1 0x20 ADD SWAP1 PUSH2 0x17AD SWAP3 SWAP2 SWAP1 PUSH2 0x21F8 JUMP JUMPDEST POP DUP4 PUSH1 0x7 DUP8 DUP2 SLOAD DUP2 LT PUSH2 0x17C3 JUMPI PUSH2 0x17C2 PUSH2 0x32E9 JUMP JUMPDEST JUMPDEST SWAP1 PUSH1 0x0 MSTORE PUSH1 0x20 PUSH1 0x0 KECCAK256 SWAP1 PUSH1 0xB MUL ADD PUSH1 0x3 ADD SWAP1 DUP1 MLOAD SWAP1 PUSH1 0x20 ADD SWAP1 PUSH2 0x17E7 SWAP3 SWAP2 SWAP1 PUSH2 0x21F8 JUMP JUMPDEST POP DUP3 PUSH1 0x7 DUP8 DUP2 SLOAD DUP2 LT PUSH2 0x17FD JUMPI PUSH2 0x17FC PUSH2 0x32E9 JUMP JUMPDEST JUMPDEST SWAP1 PUSH1 0x0 MSTORE PUSH1 0x20 PUSH1 0x0 KECCAK256 SWAP1 PUSH1 0xB MUL ADD PUSH1 0x4 ADD SWAP1 DUP1 MLOAD SWAP1 PUSH1 0x20 ADD SWAP1 PUSH2 0x1821 SWAP3 SWAP2 SWAP1 PUSH2 0x21F8 JUMP JUMPDEST POP DUP2 PUSH1 0x7 DUP8 DUP2 SLOAD DUP2 LT PUSH2 0x1837 JUMPI PUSH2 0x1836 PUSH2 0x32E9 JUMP JUMPDEST JUMPDEST SWAP1 PUSH1 0x0 MSTORE PUSH1 0x20 PUSH1 0x0 KECCAK256 SWAP1 PUSH1 0xB MUL ADD PUSH1 0x8 ADD DUP2 SWAP1 SSTORE POP CALLER PUSH20 0xFFFFFFFFFFFFFFFFFFFFFFFFFFFFFFFFFFFFFFFF AND PUSH32 0xAEE8E5D3BBB2F71A951B5632CEE20F7AC487B9F8AB4F66A236F7694B13AF7C6A DUP8 TIMESTAMP PUSH1 0x40 MLOAD PUSH2 0x1894 SWAP3 SWAP2 SWAP1 PUSH2 0x2E4A JUMP JUMPDEST PUSH1 0x40 MLOAD DUP1 SWAP2 SUB SWAP1 LOG2 PUSH1 0x1 SWAP1 POP SWAP6 SWAP5 POP POP POP POP POP JUMP JUMPDEST PUSH1 0x0 DUP1 DUP7 MLOAD GT PUSH2 0x18EE JUMPI PUSH1 0x40 MLOAD PUSH32 0x8C379A000000000000000000000000000000000000000000000000000000000 DUP2 MSTORE PUSH1 0x4 ADD PUSH2 0x18E5 SWAP1 PUSH2 0x2C3D JUMP JUMPDEST PUSH1 0x40 MLOAD DUP1 SWAP2 SUB SWAP1 REVERT JUMPDEST PUSH1 0x0 DUP6 MLOAD GT PUSH2 0x1932 JUMPI PUSH1 0x40 MLOAD PUSH32 0x8C379A000000000000000000000000000000000000000000000000000000000 DUP2 MSTORE PUSH1 0x4 ADD PUSH2 0x1929 SWAP1 PUSH2 0x2C7D JUMP JUMPDEST PUSH1 0x40 MLOAD DUP1 SWAP2 SUB SWAP1 REVERT JUMPDEST PUSH1 0x0 DUP5 MLOAD GT PUSH2 0x1976 JUMPI PUSH1 0x40 MLOAD PUSH32 0x8C379A000000000000000000000000000000000000000000000000000000000 DUP2 MSTORE PUSH1 0x4 ADD PUSH2 0x196D SWAP1 PUSH2 0x2C9D JUMP JUMPDEST PUSH1 0x40 MLOAD DUP1 SWAP2 SUB SWAP1 REVERT JUMPDEST PUSH1 0x0 DUP4 GT PUSH2 0x19B9 JUMPI PUSH1 0x40 MLOAD PUSH32 0x8C379A000000000000000000000000000000000000000000000000000000000 DUP2 MSTORE PUSH1 0x4 ADD PUSH2 0x19B0 SWAP1 PUSH2 0x2CDD JUMP JUMPDEST PUSH1 0x40 MLOAD DUP1 SWAP2 SUB SWAP1 REVERT JUMPDEST PUSH2 0x19C1 PUSH2 0x2176 JUMP JUMPDEST PUSH1 0x2 SLOAD DUP2 PUSH1 0x0 ADD DUP2 DUP2 MSTORE POP POP CALLER DUP2 PUSH1 0x20 ADD SWAP1 PUSH20 0xFFFFFFFFFFFFFFFFFFFFFFFFFFFFFFFFFFFFFFFF AND SWAP1 DUP2 PUSH20 0xFFFFFFFFFFFFFFFFFFFFFFFFFFFFFFFFFFFFFFFF AND DUP2 MSTORE POP POP DUP7 DUP2 PUSH1 0x40 ADD DUP2 SWAP1 MSTORE POP DUP6 DUP2 PUSH1 0x60 ADD DUP2 SWAP1 MSTORE POP DUP5 DUP2 PUSH1 0x80 ADD DUP2 SWAP1 MSTORE POP DUP4 DUP2 PUSH1 0xA0 ADD DUP2 DUP2 MSTORE POP POP TIMESTAMP DUP2 PUSH1 0xE0 ADD DUP2 DUP2 MSTORE POP POP DUP3 DUP2 PUSH2 0x100 ADD DUP2 DUP2 MSTORE POP POP PUSH1 0x7 DUP2 SWAP1 DUP1 PUSH1 0x1 DUP2 SLOAD ADD DUP1 DUP3 SSTORE DUP1 SWAP2 POP POP PUSH1 0x1 SWAP1 SUB SWAP1 PUSH1 0x0 MSTORE PUSH1 0x20 PUSH1 0x0 KECCAK256 SWAP1 PUSH1 0xB MUL ADD PUSH1 0x0 SWAP1 SWAP2 SWAP1 SWAP2 SWAP1 SWAP2 POP PUSH1 0x0 DUP3 ADD MLOAD DUP2 PUSH1 0x0 ADD SSTORE PUSH1 0x20 DUP3 ADD MLOAD DUP2 PUSH1 0x1 ADD PUSH1 0x0 PUSH2 0x100 EXP DUP2 SLOAD DUP2 PUSH20 0xFFFFFFFFFFFFFFFFFFFFFFFFFFFFFFFFFFFFFFFF MUL NOT AND SWAP1 DUP4 PUSH20 0xFFFFFFFFFFFFFFFFFFFFFFFFFFFFFFFFFFFFFFFF AND MUL OR SWAP1 SSTORE POP PUSH1 0x40 DUP3 ADD MLOAD DUP2 PUSH1 0x2 ADD SWAP1 DUP1 MLOAD SWAP1 PUSH1 0x20 ADD SWAP1 PUSH2 0x1AD8 SWAP3 SWAP2 SWAP1 PUSH2 0x21F8 JUMP JUMPDEST POP PUSH1 0x60 DUP3 ADD MLOAD DUP2 PUSH1 0x3 ADD SWAP1 DUP1 MLOAD SWAP1 PUSH1 0x20 ADD SWAP1 PUSH2 0x1AF5 SWAP3 SWAP2 SWAP1 PUSH2 0x21F8 JUMP JUMPDEST POP PUSH1 0x80 DUP3 ADD MLOAD DUP2 PUSH1 0x4 ADD SWAP1 DUP1 MLOAD SWAP1 PUSH1 0x20 ADD SWAP1 PUSH2 0x1B12 SWAP3 SWAP2 SWAP1 PUSH2 0x21F8 JUMP JUMPDEST POP PUSH1 0xA0 DUP3 ADD MLOAD DUP2 PUSH1 0x5 ADD SSTORE PUSH1 0xC0 DUP3 ADD MLOAD DUP2 PUSH1 0x6 ADD SSTORE PUSH1 0xE0 DUP3 ADD MLOAD DUP2 PUSH1 0x7 ADD SSTORE PUSH2 0x100 DUP3 ADD MLOAD DUP2 PUSH1 0x8 ADD SSTORE PUSH2 0x120 DUP3 ADD MLOAD DUP2 PUSH1 0x9 ADD SSTORE PUSH2 0x140 DUP3 ADD MLOAD DUP2 PUSH1 0xA ADD PUSH1 0x0 PUSH2 0x100 EXP DUP2 SLOAD DUP2 PUSH1 0xFF MUL NOT AND SWAP1 DUP4 PUSH1 0x4 DUP2 GT ISZERO PUSH2 0x1B73 JUMPI PUSH2 0x1B72 PUSH2 0x328B JUMP JUMPDEST JUMPDEST MUL OR SWAP1 SSTORE POP POP POP PUSH1 0x1 PUSH1 0xA PUSH1 0x0 PUSH1 0x2 SLOAD DUP2 MSTORE PUSH1 0x20 ADD SWAP1 DUP2 MSTORE PUSH1 0x20 ADD PUSH1 0x0 KECCAK256 PUSH1 0x0 PUSH2 0x100 EXP DUP2 SLOAD DUP2 PUSH1 0xFF MUL NOT AND SWAP1 DUP4 ISZERO ISZERO MUL OR SWAP1 SSTORE POP PUSH1 0x8 PUSH1 0x0 CALLER PUSH20 0xFFFFFFFFFFFFFFFFFFFFFFFFFFFFFFFFFFFFFFFF AND PUSH20 0xFFFFFFFFFFFFFFFFFFFFFFFFFFFFFFFFFFFFFFFF AND DUP2 MSTORE PUSH1 0x20 ADD SWAP1 DUP2 MSTORE PUSH1 0x20 ADD PUSH1 0x0 KECCAK256 DUP2 SWAP1 DUP1 PUSH1 0x1 DUP2 SLOAD ADD DUP1 DUP3 SSTORE DUP1 SWAP2 POP POP PUSH1 0x1 SWAP1 SUB SWAP1 PUSH1 0x0 MSTORE PUSH1 0x20 PUSH1 0x0 KECCAK256 SWAP1 PUSH1 0xB MUL ADD PUSH1 0x0 SWAP1 SWAP2 SWAP1 SWAP2 SWAP1 SWAP2 POP PUSH1 0x0 DUP3 ADD MLOAD DUP2 PUSH1 0x0 ADD SSTORE PUSH1 0x20 DUP3 ADD MLOAD DUP2 PUSH1 0x1 ADD PUSH1 0x0 PUSH2 0x100 EXP DUP2 SLOAD DUP2 PUSH20 0xFFFFFFFFFFFFFFFFFFFFFFFFFFFFFFFFFFFFFFFF MUL NOT AND SWAP1 DUP4 PUSH20 0xFFFFFFFFFFFFFFFFFFFFFFFFFFFFFFFFFFFFFFFF AND MUL OR SWAP1 SSTORE POP PUSH1 0x40 DUP3 ADD MLOAD DUP2 PUSH1 0x2 ADD SWAP1 DUP1 MLOAD SWAP1 PUSH1 0x20 ADD SWAP1 PUSH2 0x1C7E SWAP3 SWAP2 SWAP1 PUSH2 0x21F8 JUMP JUMPDEST POP PUSH1 0x60 DUP3 ADD MLOAD DUP2 PUSH1 0x3 ADD SWAP1 DUP1 MLOAD SWAP1 PUSH1 0x20 ADD SWAP1 PUSH2 0x1C9B SWAP3 SWAP2 SWAP1 PUSH2 0x21F8 JUMP JUMPDEST POP PUSH1 0x80 DUP3 ADD MLOAD DUP2 PUSH1 0x4 ADD SWAP1 DUP1 MLOAD SWAP1 PUSH1 0x20 ADD SWAP1 PUSH2 0x1CB8 SWAP3 SWAP2 SWAP1 PUSH2 0x21F8 JUMP JUMPDEST POP PUSH1 0xA0 DUP3 ADD MLOAD DUP2 PUSH1 0x5 ADD SSTORE PUSH1 0xC0 DUP3 ADD MLOAD DUP2 PUSH1 0x6 ADD SSTORE PUSH1 0xE0 DUP3 ADD MLOAD DUP2 PUSH1 0x7 ADD SSTORE PUSH2 0x100 DUP3 ADD MLOAD DUP2 PUSH1 0x8 ADD SSTORE PUSH2 0x120 DUP3 ADD MLOAD DUP2 PUSH1 0x9 ADD SSTORE PUSH2 0x140 DUP3 ADD MLOAD DUP2 PUSH1 0xA ADD PUSH1 0x0 PUSH2 0x100 EXP DUP2 SLOAD DUP2 PUSH1 0xFF MUL NOT AND SWAP1 DUP4 PUSH1 0x4 DUP2 GT ISZERO PUSH2 0x1D19 JUMPI PUSH2 0x1D18 PUSH2 0x328B JUMP JUMPDEST JUMPDEST MUL OR SWAP1 SSTORE POP POP POP PUSH1 0x1 PUSH1 0x4 PUSH1 0x0 ADD PUSH1 0x0 DUP3 DUP3 SLOAD PUSH2 0x1D36 SWAP2 SWAP1 PUSH2 0x2FBD JUMP JUMPDEST SWAP3 POP POP DUP2 SWAP1 SSTORE POP CALLER PUSH20 0xFFFFFFFFFFFFFFFFFFFFFFFFFFFFFFFFFFFFFFFF AND PUSH32 0xAEE8E5D3BBB2F71A951B5632CEE20F7AC487B9F8AB4F66A236F7694B13AF7C6A PUSH1 0x2 PUSH1 0x0 DUP2 SLOAD DUP1 SWAP3 SWAP2 SWAP1 PUSH2 0x1D88 SWAP1 PUSH2 0x31E4 JUMP JUMPDEST SWAP2 SWAP1 POP SSTORE TIMESTAMP PUSH1 0x40 MLOAD PUSH2 0x1D9B SWAP3 SWAP2 SWAP1 PUSH2 0x2E0E JUMP JUMPDEST PUSH1 0x40 MLOAD DUP1 SWAP2 SUB SWAP1 LOG2 PUSH1 0x1 SWAP2 POP POP SWAP6 SWAP5 POP POP POP POP POP JUMP JUMPDEST PUSH1 0x0 JUMPDEST PUSH1 0x9 PUSH1 0x0 DUP4 DUP2 MSTORE PUSH1 0x20 ADD SWAP1 DUP2 MSTORE PUSH1 0x20 ADD PUSH1 0x0 KECCAK256 DUP1 SLOAD SWAP1 POP DUP2 LT ISZERO PUSH2 0x1F4A JUMPI PUSH1 0x0 PUSH1 0x9 PUSH1 0x0 DUP5 DUP2 MSTORE PUSH1 0x20 ADD SWAP1 DUP2 MSTORE PUSH1 0x20 ADD PUSH1 0x0 KECCAK256 DUP3 DUP2 SLOAD DUP2 LT PUSH2 0x1DF9 JUMPI PUSH2 0x1DF8 PUSH2 0x32E9 JUMP JUMPDEST JUMPDEST SWAP1 PUSH1 0x0 MSTORE PUSH1 0x20 PUSH1 0x0 KECCAK256 SWAP1 PUSH1 0x4 MUL ADD PUSH1 0x0 ADD PUSH1 0x0 SWAP1 SLOAD SWAP1 PUSH2 0x100 EXP SWAP1 DIV PUSH20 0xFFFFFFFFFFFFFFFFFFFFFFFFFFFFFFFFFFFFFFFF AND SWAP1 POP PUSH1 0x0 PUSH1 0x9 PUSH1 0x0 DUP6 DUP2 MSTORE PUSH1 0x20 ADD SWAP1 DUP2 MSTORE PUSH1 0x20 ADD PUSH1 0x0 KECCAK256 DUP4 DUP2 SLOAD DUP2 LT PUSH2 0x1E54 JUMPI PUSH2 0x1E53 PUSH2 0x32E9 JUMP JUMPDEST JUMPDEST SWAP1 PUSH1 0x0 MSTORE PUSH1 0x20 PUSH1 0x0 KECCAK256 SWAP1 PUSH1 0x4 MUL ADD PUSH1 0x1 ADD SLOAD SWAP1 POP PUSH1 0x1 PUSH1 0x9 PUSH1 0x0 DUP7 DUP2 MSTORE PUSH1 0x20 ADD SWAP1 DUP2 MSTORE PUSH1 0x20 ADD PUSH1 0x0 KECCAK256 DUP5 DUP2 SLOAD DUP2 LT PUSH2 0x1E8F JUMPI PUSH2 0x1E8E PUSH2 0x32E9 JUMP JUMPDEST JUMPDEST SWAP1 PUSH1 0x0 MSTORE PUSH1 0x20 PUSH1 0x0 KECCAK256 SWAP1 PUSH1 0x4 MUL ADD PUSH1 0x3 ADD PUSH1 0x0 PUSH2 0x100 EXP DUP2 SLOAD DUP2 PUSH1 0xFF MUL NOT AND SWAP1 DUP4 ISZERO ISZERO MUL OR SWAP1 SSTORE POP TIMESTAMP PUSH1 0x9 PUSH1 0x0 DUP7 DUP2 MSTORE PUSH1 0x20 ADD SWAP1 DUP2 MSTORE PUSH1 0x20 ADD PUSH1 0x0 KECCAK256 DUP5 DUP2 SLOAD DUP2 LT PUSH2 0x1EDD JUMPI PUSH2 0x1EDC PUSH2 0x32E9 JUMP JUMPDEST JUMPDEST SWAP1 PUSH1 0x0 MSTORE PUSH1 0x20 PUSH1 0x0 KECCAK256 SWAP1 PUSH1 0x4 MUL ADD PUSH1 0x2 ADD DUP2 SWAP1 SSTORE POP PUSH2 0x1EFC DUP3 DUP3 PUSH2 0x20FB JUMP JUMPDEST PUSH1 0x1 PUSH1 0x4 PUSH1 0x1 ADD PUSH1 0x0 DUP3 DUP3 SLOAD PUSH2 0x1F12 SWAP2 SWAP1 PUSH2 0x309E JUMP JUMPDEST SWAP3 POP POP DUP2 SWAP1 SSTORE POP DUP1 PUSH1 0x4 PUSH1 0x2 ADD PUSH1 0x0 DUP3 DUP3 SLOAD PUSH2 0x1F2E SWAP2 SWAP1 PUSH2 0x309E JUMP JUMPDEST SWAP3 POP POP DUP2 SWAP1 SSTORE POP POP POP DUP1 DUP1 PUSH2 0x1F42 SWAP1 PUSH2 0x31E4 JUMP JUMPDEST SWAP2 POP POP PUSH2 0x1DB4 JUMP JUMPDEST POP POP JUMP JUMPDEST PUSH1 0x0 PUSH1 0x7 DUP3 DUP2 SLOAD DUP2 LT PUSH2 0x1F64 JUMPI PUSH2 0x1F63 PUSH2 0x32E9 JUMP JUMPDEST JUMPDEST SWAP1 PUSH1 0x0 MSTORE PUSH1 0x20 PUSH1 0x0 KECCAK256 SWAP1 PUSH1 0xB MUL ADD PUSH1 0x6 ADD SLOAD SWAP1 POP PUSH1 0x0 PUSH1 0x64 PUSH1 0x1 SLOAD DUP4 PUSH2 0x1F8A SWAP2 SWAP1 PUSH2 0x3044 JUMP JUMPDEST PUSH2 0x1F94 SWAP2 SWAP1 PUSH2 0x3013 JUMP JUMPDEST SWAP1 POP PUSH1 0x4 PUSH1 0x7 DUP5 DUP2 SLOAD DUP2 LT PUSH2 0x1FAC JUMPI PUSH2 0x1FAB PUSH2 0x32E9 JUMP JUMPDEST JUMPDEST SWAP1 PUSH1 0x0 MSTORE PUSH1 0x20 PUSH1 0x0 KECCAK256 SWAP1 PUSH1 0xB MUL ADD PUSH1 0xA ADD PUSH1 0x0 PUSH2 0x100 EXP DUP2 SLOAD DUP2 PUSH1 0xFF MUL NOT AND SWAP1 DUP4 PUSH1 0x4 DUP2 GT ISZERO PUSH2 0x1FDF JUMPI PUSH2 0x1FDE PUSH2 0x328B JUMP JUMPDEST JUMPDEST MUL OR SWAP1 SSTORE POP PUSH2 0x203E PUSH1 0x7 DUP5 DUP2 SLOAD DUP2 LT PUSH2 0x1FFB JUMPI PUSH2 0x1FFA PUSH2 0x32E9 JUMP JUMPDEST JUMPDEST SWAP1 PUSH1 0x0 MSTORE PUSH1 0x20 PUSH1 0x0 KECCAK256 SWAP1 PUSH1 0xB MUL ADD PUSH1 0x1 ADD PUSH1 0x0 SWAP1 SLOAD SWAP1 PUSH2 0x100 EXP SWAP1 DIV PUSH20 0xFFFFFFFFFFFFFFFFFFFFFFFFFFFFFFFFFFFFFFFF AND DUP3 DUP5 PUSH2 0x2039 SWAP2 SWAP1 PUSH2 0x309E JUMP JUMPDEST PUSH2 0x20FB JUMP JUMPDEST PUSH2 0x2068 PUSH1 0x0 DUP1 SLOAD SWAP1 PUSH2 0x100 EXP SWAP1 DIV PUSH20 0xFFFFFFFFFFFFFFFFFFFFFFFFFFFFFFFFFFFFFFFF AND DUP3 PUSH2 0x20FB JUMP JUMPDEST PUSH1 0x7 DUP4 DUP2 SLOAD DUP2 LT PUSH2 0x207C JUMPI PUSH2 0x207B PUSH2 0x32E9 JUMP JUMPDEST JUMPDEST SWAP1 PUSH1 0x0 MSTORE PUSH1 0x20 PUSH1 0x0 KECCAK256 SWAP1 PUSH1 0xB MUL ADD PUSH1 0x6 ADD SLOAD PUSH1 0x3 PUSH1 0x0 DUP3 DUP3 SLOAD PUSH2 0x209F SWAP2 SWAP1 PUSH2 0x309E JUMP JUMPDEST SWAP3 POP POP DUP2 SWAP1 SSTORE POP CALLER PUSH20 0xFFFFFFFFFFFFFFFFFFFFFFFFFFFFFFFFFFFFFFFF AND PUSH32 0xAEE8E5D3BBB2F71A951B5632CEE20F7AC487B9F8AB4F66A236F7694B13AF7C6A DUP5 TIMESTAMP PUSH1 0x40 MLOAD PUSH2 0x20EE SWAP3 SWAP2 SWAP1 PUSH2 0x2DD2 JUMP JUMPDEST PUSH1 0x40 MLOAD DUP1 SWAP2 SUB SWAP1 LOG2 POP POP POP JUMP JUMPDEST PUSH1 0x0 DUP3 PUSH20 0xFFFFFFFFFFFFFFFFFFFFFFFFFFFFFFFFFFFFFFFF AND DUP3 PUSH1 0x40 MLOAD PUSH2 0x2121 SWAP1 PUSH2 0x2B2E JUMP JUMPDEST PUSH1 0x0 PUSH1 0x40 MLOAD DUP1 DUP4 SUB DUP2 DUP6 DUP8 GAS CALL SWAP3 POP POP POP RETURNDATASIZE DUP1 PUSH1 0x0 DUP2 EQ PUSH2 0x215E JUMPI PUSH1 0x40 MLOAD SWAP2 POP PUSH1 0x1F NOT PUSH1 0x3F RETURNDATASIZE ADD AND DUP3 ADD PUSH1 0x40 MSTORE RETURNDATASIZE DUP3 MSTORE RETURNDATASIZE PUSH1 0x0 PUSH1 0x20 DUP5 ADD RETURNDATACOPY PUSH2 0x2163 JUMP JUMPDEST PUSH1 0x60 SWAP2 POP JUMPDEST POP POP SWAP1 POP DUP1 PUSH2 0x2171 JUMPI PUSH1 0x0 DUP1 REVERT JUMPDEST POP POP POP JUMP JUMPDEST PUSH1 0x40 MLOAD DUP1 PUSH2 0x160 ADD PUSH1 0x40 MSTORE DUP1 PUSH1 0x0 DUP2 MSTORE PUSH1 0x20 ADD PUSH1 0x0 PUSH20 0xFFFFFFFFFFFFFFFFFFFFFFFFFFFFFFFFFFFFFFFF AND DUP2 MSTORE PUSH1 0x20 ADD PUSH1 0x60 DUP2 MSTORE PUSH1 0x20 ADD PUSH1 0x60 DUP2 MSTORE PUSH1 0x20 ADD PUSH1 0x60 DUP2 MSTORE PUSH1 0x20 ADD PUSH1 0x0 DUP2 MSTORE PUSH1 0x20 ADD PUSH1 0x0 DUP2 MSTORE PUSH1 0x20 ADD PUSH1 0x0 DUP2 MSTORE PUSH1 0x20 ADD PUSH1 0x0 DUP2 MSTORE PUSH1 0x20 ADD PUSH1 0x0 DUP2 MSTORE PUSH1 0x20 ADD PUSH1 0x0 PUSH1 0x4 DUP2 GT ISZERO PUSH2 0x21F2 JUMPI PUSH2 0x21F1 PUSH2 0x328B JUMP JUMPDEST JUMPDEST DUP2 MSTORE POP SWAP1 JUMP JUMPDEST DUP3 DUP1 SLOAD PUSH2 0x2204 SWAP1 PUSH2 0x3181 JUMP JUMPDEST SWAP1 PUSH1 0x0 MSTORE PUSH1 0x20 PUSH1 0x0 KECCAK256 SWAP1 PUSH1 0x1F ADD PUSH1 0x20 SWAP1 DIV DUP2 ADD SWAP3 DUP3 PUSH2 0x2226 JUMPI PUSH1 0x0 DUP6 SSTORE PUSH2 0x226D JUMP JUMPDEST DUP3 PUSH1 0x1F LT PUSH2 0x223F JUMPI DUP1 MLOAD PUSH1 0xFF NOT AND DUP4 DUP1 ADD OR DUP6 SSTORE PUSH2 0x226D JUMP JUMPDEST DUP3 DUP1 ADD PUSH1 0x1 ADD DUP6 SSTORE DUP3 ISZERO PUSH2 0x226D JUMPI SWAP2 DUP3 ADD JUMPDEST DUP3 DUP2 GT ISZERO PUSH2 0x226C JUMPI DUP3 MLOAD DUP3 SSTORE SWAP2 PUSH1 0x20 ADD SWAP2 SWAP1 PUSH1 0x1 ADD SWAP1 PUSH2 0x2251 JUMP JUMPDEST JUMPDEST POP SWAP1 POP PUSH2 0x227A SWAP2 SWAP1 PUSH2 0x227E JUMP JUMPDEST POP SWAP1 JUMP JUMPDEST JUMPDEST DUP1 DUP3 GT ISZERO PUSH2 0x2297 JUMPI PUSH1 0x0 DUP2 PUSH1 0x0 SWAP1 SSTORE POP PUSH1 0x1 ADD PUSH2 0x227F JUMP JUMPDEST POP SWAP1 JUMP JUMPDEST PUSH1 0x0 PUSH2 0x22AE PUSH2 0x22A9 DUP5 PUSH2 0x2EE2 JUMP JUMPDEST PUSH2 0x2EBD JUMP JUMPDEST SWAP1 POP DUP3 DUP2 MSTORE PUSH1 0x20 DUP2 ADD DUP5 DUP5 DUP5 ADD GT ISZERO PUSH2 0x22CA JUMPI PUSH2 0x22C9 PUSH2 0x334C JUMP JUMPDEST JUMPDEST PUSH2 0x22D5 DUP5 DUP3 DUP6 PUSH2 0x313F JUMP JUMPDEST POP SWAP4 SWAP3 POP POP POP JUMP JUMPDEST PUSH1 0x0 DUP3 PUSH1 0x1F DUP4 ADD SLT PUSH2 0x22F2 JUMPI PUSH2 0x22F1 PUSH2 0x3347 JUMP JUMPDEST JUMPDEST DUP2 CALLDATALOAD PUSH2 0x2302 DUP5 DUP3 PUSH1 0x20 DUP7 ADD PUSH2 0x229B JUMP JUMPDEST SWAP2 POP POP SWAP3 SWAP2 POP POP JUMP JUMPDEST PUSH1 0x0 DUP2 CALLDATALOAD SWAP1 POP PUSH2 0x231A DUP2 PUSH2 0x3743 JUMP JUMPDEST SWAP3 SWAP2 POP POP JUMP JUMPDEST PUSH1 0x0 DUP1 PUSH1 0x0 DUP1 PUSH1 0x0 PUSH1 0xA0 DUP7 DUP9 SUB SLT ISZERO PUSH2 0x233C JUMPI PUSH2 0x233B PUSH2 0x3356 JUMP JUMPDEST JUMPDEST PUSH1 0x0 DUP7 ADD CALLDATALOAD PUSH8 0xFFFFFFFFFFFFFFFF DUP2 GT ISZERO PUSH2 0x235A JUMPI PUSH2 0x2359 PUSH2 0x3351 JUMP JUMPDEST JUMPDEST PUSH2 0x2366 DUP9 DUP3 DUP10 ADD PUSH2 0x22DD JUMP JUMPDEST SWAP6 POP POP PUSH1 0x20 DUP7 ADD CALLDATALOAD PUSH8 0xFFFFFFFFFFFFFFFF DUP2 GT ISZERO PUSH2 0x2387 JUMPI PUSH2 0x2386 PUSH2 0x3351 JUMP JUMPDEST JUMPDEST PUSH2 0x2393 DUP9 DUP3 DUP10 ADD PUSH2 0x22DD JUMP JUMPDEST SWAP5 POP POP PUSH1 0x40 DUP7 ADD CALLDATALOAD PUSH8 0xFFFFFFFFFFFFFFFF DUP2 GT ISZERO PUSH2 0x23B4 JUMPI PUSH2 0x23B3 PUSH2 0x3351 JUMP JUMPDEST JUMPDEST PUSH2 0x23C0 DUP9 DUP3 DUP10 ADD PUSH2 0x22DD JUMP JUMPDEST SWAP4 POP POP PUSH1 0x60 PUSH2 0x23D1 DUP9 DUP3 DUP10 ADD PUSH2 0x230B JUMP JUMPDEST SWAP3 POP POP PUSH1 0x80 PUSH2 0x23E2 DUP9 DUP3 DUP10 ADD PUSH2 0x230B JUMP JUMPDEST SWAP2 POP POP SWAP3 SWAP6 POP SWAP3 SWAP6 SWAP1 SWAP4 POP JUMP JUMPDEST PUSH1 0x0 PUSH1 0x20 DUP3 DUP5 SUB SLT ISZERO PUSH2 0x2405 JUMPI PUSH2 0x2404 PUSH2 0x3356 JUMP JUMPDEST JUMPDEST PUSH1 0x0 PUSH2 0x2413 DUP5 DUP3 DUP6 ADD PUSH2 0x230B JUMP JUMPDEST SWAP2 POP POP SWAP3 SWAP2 POP POP JUMP JUMPDEST PUSH1 0x0 DUP1 PUSH1 0x0 DUP1 PUSH1 0x0 PUSH1 0xA0 DUP7 DUP9 SUB SLT ISZERO PUSH2 0x2438 JUMPI PUSH2 0x2437 PUSH2 0x3356 JUMP JUMPDEST JUMPDEST PUSH1 0x0 PUSH2 0x2446 DUP9 DUP3 DUP10 ADD PUSH2 0x230B JUMP JUMPDEST SWAP6 POP POP PUSH1 0x20 DUP7 ADD CALLDATALOAD PUSH8 0xFFFFFFFFFFFFFFFF DUP2 GT ISZERO PUSH2 0x2467 JUMPI PUSH2 0x2466 PUSH2 0x3351 JUMP JUMPDEST JUMPDEST PUSH2 0x2473 DUP9 DUP3 DUP10 ADD PUSH2 0x22DD JUMP JUMPDEST SWAP5 POP POP PUSH1 0x40 DUP7 ADD CALLDATALOAD PUSH8 0xFFFFFFFFFFFFFFFF DUP2 GT ISZERO PUSH2 0x2494 JUMPI PUSH2 0x2493 PUSH2 0x3351 JUMP JUMPDEST JUMPDEST PUSH2 0x24A0 DUP9 DUP3 DUP10 ADD PUSH2 0x22DD JUMP JUMPDEST SWAP4 POP POP PUSH1 0x60 DUP7 ADD CALLDATALOAD PUSH8 0xFFFFFFFFFFFFFFFF DUP2 GT ISZERO PUSH2 0x24C1 JUMPI PUSH2 0x24C0 PUSH2 0x3351 JUMP JUMPDEST JUMPDEST PUSH2 0x24CD DUP9 DUP3 DUP10 ADD PUSH2 0x22DD JUMP JUMPDEST SWAP3 POP POP PUSH1 0x80 PUSH2 0x24DE DUP9 DUP3 DUP10 ADD PUSH2 0x230B JUMP JUMPDEST SWAP2 POP POP SWAP3 SWAP6 POP SWAP3 SWAP6 SWAP1 SWAP4 POP JUMP JUMPDEST PUSH1 0x0 PUSH2 0x24F7 DUP4 DUP4 PUSH2 0x28C1 JUMP JUMPDEST SWAP1 POP SWAP3 SWAP2 POP POP JUMP JUMPDEST PUSH1 0x0 PUSH2 0x250B DUP4 DUP4 PUSH2 0x2ABB JUMP JUMPDEST PUSH1 0x80 DUP4 ADD SWAP1 POP SWAP3 SWAP2 POP POP JUMP JUMPDEST PUSH2 0x2520 DUP2 PUSH2 0x30D2 JUMP JUMPDEST DUP3 MSTORE POP POP JUMP JUMPDEST PUSH2 0x252F DUP2 PUSH2 0x30D2 JUMP JUMPDEST DUP3 MSTORE POP POP JUMP JUMPDEST PUSH1 0x0 PUSH2 0x2540 DUP3 PUSH2 0x2F33 JUMP JUMPDEST PUSH2 0x254A DUP2 DUP6 PUSH2 0x2F6E JUMP JUMPDEST SWAP4 POP DUP4 PUSH1 0x20 DUP3 MUL DUP6 ADD PUSH2 0x255C DUP6 PUSH2 0x2F13 JUMP JUMPDEST DUP1 PUSH1 0x0 JUMPDEST DUP6 DUP2 LT ISZERO PUSH2 0x2598 JUMPI DUP5 DUP5 SUB DUP10 MSTORE DUP2 MLOAD PUSH2 0x2579 DUP6 DUP3 PUSH2 0x24EB JUMP JUMPDEST SWAP5 POP PUSH2 0x2584 DUP4 PUSH2 0x2F54 JUMP JUMPDEST SWAP3 POP PUSH1 0x20 DUP11 ADD SWAP10 POP POP PUSH1 0x1 DUP2 ADD SWAP1 POP PUSH2 0x2560 JUMP JUMPDEST POP DUP3 SWAP8 POP DUP8 SWAP6 POP POP POP POP POP POP SWAP3 SWAP2 POP POP JUMP JUMPDEST PUSH1 0x0 PUSH2 0x25B5 DUP3 PUSH2 0x2F3E JUMP JUMPDEST PUSH2 0x25BF DUP2 DUP6 PUSH2 0x2F7F JUMP JUMPDEST SWAP4 POP PUSH2 0x25CA DUP4 PUSH2 0x2F23 JUMP JUMPDEST DUP1 PUSH1 0x0 JUMPDEST DUP4 DUP2 LT ISZERO PUSH2 0x25FB JUMPI DUP2 MLOAD PUSH2 0x25E2 DUP9 DUP3 PUSH2 0x24FF JUMP JUMPDEST SWAP8 POP PUSH2 0x25ED DUP4 PUSH2 0x2F61 JUMP JUMPDEST SWAP3 POP POP PUSH1 0x1 DUP2 ADD SWAP1 POP PUSH2 0x25CE JUMP JUMPDEST POP DUP6 SWAP4 POP POP POP POP SWAP3 SWAP2 POP POP JUMP JUMPDEST PUSH2 0x2611 DUP2 PUSH2 0x30E4 JUMP JUMPDEST DUP3 MSTORE POP POP JUMP JUMPDEST PUSH2 0x2620 DUP2 PUSH2 0x30E4 JUMP JUMPDEST DUP3 MSTORE POP POP JUMP JUMPDEST PUSH2 0x262F DUP2 PUSH2 0x312D JUMP JUMPDEST DUP3 MSTORE POP POP JUMP JUMPDEST PUSH1 0x0 PUSH2 0x2640 DUP3 PUSH2 0x2F49 JUMP JUMPDEST PUSH2 0x264A DUP2 DUP6 PUSH2 0x2F9B JUMP JUMPDEST SWAP4 POP PUSH2 0x265A DUP2 DUP6 PUSH1 0x20 DUP7 ADD PUSH2 0x314E JUMP JUMPDEST PUSH2 0x2663 DUP2 PUSH2 0x335B JUMP JUMPDEST DUP5 ADD SWAP2 POP POP SWAP3 SWAP2 POP POP JUMP JUMPDEST PUSH1 0x0 PUSH2 0x267B PUSH1 0x16 DUP4 PUSH2 0x2FAC JUMP JUMPDEST SWAP2 POP PUSH2 0x2686 DUP3 PUSH2 0x336C JUMP JUMPDEST PUSH1 0x20 DUP3 ADD SWAP1 POP SWAP2 SWAP1 POP JUMP JUMPDEST PUSH1 0x0 PUSH2 0x269E PUSH1 0x2C DUP4 PUSH2 0x2FAC JUMP JUMPDEST SWAP2 POP PUSH2 0x26A9 DUP3 PUSH2 0x3395 JUMP JUMPDEST PUSH1 0x40 DUP3 ADD SWAP1 POP SWAP2 SWAP1 POP JUMP JUMPDEST PUSH1 0x0 PUSH2 0x26C1 PUSH1 0x1B DUP4 PUSH2 0x2FAC JUMP JUMPDEST SWAP2 POP PUSH2 0x26CC DUP3 PUSH2 0x33E4 JUMP JUMPDEST PUSH1 0x20 DUP3 ADD SWAP1 POP SWAP2 SWAP1 POP JUMP JUMPDEST PUSH1 0x0 PUSH2 0x26E4 PUSH1 0x1A DUP4 PUSH2 0x2FAC JUMP JUMPDEST SWAP2 POP PUSH2 0x26EF DUP3 PUSH2 0x340D JUMP JUMPDEST PUSH1 0x20 DUP3 ADD SWAP1 POP SWAP2 SWAP1 POP JUMP JUMPDEST PUSH1 0x0 PUSH2 0x2707 PUSH1 0x26 DUP4 PUSH2 0x2FAC JUMP JUMPDEST SWAP2 POP PUSH2 0x2712 DUP3 PUSH2 0x3436 JUMP JUMPDEST PUSH1 0x40 DUP3 ADD SWAP1 POP SWAP2 SWAP1 POP JUMP JUMPDEST PUSH1 0x0 PUSH2 0x272A PUSH1 0x25 DUP4 PUSH2 0x2FAC JUMP JUMPDEST SWAP2 POP PUSH2 0x2735 DUP3 PUSH2 0x3485 JUMP JUMPDEST PUSH1 0x40 DUP3 ADD SWAP1 POP SWAP2 SWAP1 POP JUMP JUMPDEST PUSH1 0x0 PUSH2 0x274D PUSH1 0x12 DUP4 PUSH2 0x2FAC JUMP JUMPDEST SWAP2 POP PUSH2 0x2758 DUP3 PUSH2 0x34D4 JUMP JUMPDEST PUSH1 0x20 DUP3 ADD SWAP1 POP SWAP2 SWAP1 POP JUMP JUMPDEST PUSH1 0x0 PUSH2 0x2770 PUSH1 0x2C DUP4 PUSH2 0x2FAC JUMP JUMPDEST SWAP2 POP PUSH2 0x277B DUP3 PUSH2 0x34FD JUMP JUMPDEST PUSH1 0x40 DUP3 ADD SWAP1 POP SWAP2 SWAP1 POP JUMP JUMPDEST PUSH1 0x0 PUSH2 0x2793 PUSH1 0x13 DUP4 PUSH2 0x2FAC JUMP JUMPDEST SWAP2 POP PUSH2 0x279E DUP3 PUSH2 0x354C JUMP JUMPDEST PUSH1 0x20 DUP3 ADD SWAP1 POP SWAP2 SWAP1 POP JUMP JUMPDEST PUSH1 0x0 PUSH2 0x27B6 PUSH1 0x2B DUP4 PUSH2 0x2FAC JUMP JUMPDEST SWAP2 POP PUSH2 0x27C1 DUP3 PUSH2 0x3575 JUMP JUMPDEST PUSH1 0x40 DUP3 ADD SWAP1 POP SWAP2 SWAP1 POP JUMP JUMPDEST PUSH1 0x0 PUSH2 0x27D9 PUSH1 0x12 DUP4 PUSH2 0x2FAC JUMP JUMPDEST SWAP2 POP PUSH2 0x27E4 DUP3 PUSH2 0x35C4 JUMP JUMPDEST PUSH1 0x20 DUP3 ADD SWAP1 POP SWAP2 SWAP1 POP JUMP JUMPDEST PUSH1 0x0 PUSH2 0x27FC PUSH1 0x3C DUP4 PUSH2 0x2FAC JUMP JUMPDEST SWAP2 POP PUSH2 0x2807 DUP3 PUSH2 0x35ED JUMP JUMPDEST PUSH1 0x40 DUP3 ADD SWAP1 POP SWAP2 SWAP1 POP JUMP JUMPDEST PUSH1 0x0 PUSH2 0x281F PUSH1 0x10 DUP4 PUSH2 0x2FAC JUMP JUMPDEST SWAP2 POP PUSH2 0x282A DUP3 PUSH2 0x363C JUMP JUMPDEST PUSH1 0x20 DUP3 ADD SWAP1 POP SWAP2 SWAP1 POP JUMP JUMPDEST PUSH1 0x0 PUSH2 0x2842 PUSH1 0x11 DUP4 PUSH2 0x2FAC JUMP JUMPDEST SWAP2 POP PUSH2 0x284D DUP3 PUSH2 0x3665 JUMP JUMPDEST PUSH1 0x20 DUP3 ADD SWAP1 POP SWAP2 SWAP1 POP JUMP JUMPDEST PUSH1 0x0 PUSH2 0x2865 PUSH1 0x0 DUP4 PUSH2 0x2F90 JUMP JUMPDEST SWAP2 POP PUSH2 0x2870 DUP3 PUSH2 0x368E JUMP JUMPDEST PUSH1 0x0 DUP3 ADD SWAP1 POP SWAP2 SWAP1 POP JUMP JUMPDEST PUSH1 0x0 PUSH2 0x2888 PUSH1 0x2F DUP4 PUSH2 0x2FAC JUMP JUMPDEST SWAP2 POP PUSH2 0x2893 DUP3 PUSH2 0x3691 JUMP JUMPDEST PUSH1 0x40 DUP3 ADD SWAP1 POP SWAP2 SWAP1 POP JUMP JUMPDEST PUSH1 0x0 PUSH2 0x28AB PUSH1 0x34 DUP4 PUSH2 0x2FAC JUMP JUMPDEST SWAP2 POP PUSH2 0x28B6 DUP3 PUSH2 0x36E0 JUMP JUMPDEST PUSH1 0x40 DUP3 ADD SWAP1 POP SWAP2 SWAP1 POP JUMP JUMPDEST PUSH1 0x0 PUSH2 0x160 DUP4 ADD PUSH1 0x0 DUP4 ADD MLOAD PUSH2 0x28DA PUSH1 0x0 DUP7 ADD DUP3 PUSH2 0x2B10 JUMP JUMPDEST POP PUSH1 0x20 DUP4 ADD MLOAD PUSH2 0x28ED PUSH1 0x20 DUP7 ADD DUP3 PUSH2 0x2517 JUMP JUMPDEST POP PUSH1 0x40 DUP4 ADD MLOAD DUP5 DUP3 SUB PUSH1 0x40 DUP7 ADD MSTORE PUSH2 0x2905 DUP3 DUP3 PUSH2 0x2635 JUMP JUMPDEST SWAP2 POP POP PUSH1 0x60 DUP4 ADD MLOAD DUP5 DUP3 SUB PUSH1 0x60 DUP7 ADD MSTORE PUSH2 0x291F DUP3 DUP3 PUSH2 0x2635 JUMP JUMPDEST SWAP2 POP POP PUSH1 0x80 DUP4 ADD MLOAD DUP5 DUP3 SUB PUSH1 0x80 DUP7 ADD MSTORE PUSH2 0x2939 DUP3 DUP3 PUSH2 0x2635 JUMP JUMPDEST SWAP2 POP POP PUSH1 0xA0 DUP4 ADD MLOAD PUSH2 0x294E PUSH1 0xA0 DUP7 ADD DUP3 PUSH2 0x2B10 JUMP JUMPDEST POP PUSH1 0xC0 DUP4 ADD MLOAD PUSH2 0x2961 PUSH1 0xC0 DUP7 ADD DUP3 PUSH2 0x2B10 JUMP JUMPDEST POP PUSH1 0xE0 DUP4 ADD MLOAD PUSH2 0x2974 PUSH1 0xE0 DUP7 ADD DUP3 PUSH2 0x2B10 JUMP JUMPDEST POP PUSH2 0x100 DUP4 ADD MLOAD PUSH2 0x2989 PUSH2 0x100 DUP7 ADD DUP3 PUSH2 0x2B10 JUMP JUMPDEST POP PUSH2 0x120 DUP4 ADD MLOAD PUSH2 0x299E PUSH2 0x120 DUP7 ADD DUP3 PUSH2 0x2B10 JUMP JUMPDEST POP PUSH2 0x140 DUP4 ADD MLOAD PUSH2 0x29B3 PUSH2 0x140 DUP7 ADD DUP3 PUSH2 0x2626 JUMP JUMPDEST POP DUP1 SWAP2 POP POP SWAP3 SWAP2 POP POP JUMP JUMPDEST PUSH1 0x0 PUSH2 0x160 DUP4 ADD PUSH1 0x0 DUP4 ADD MLOAD PUSH2 0x29D7 PUSH1 0x0 DUP7 ADD DUP3 PUSH2 0x2B10 JUMP JUMPDEST POP PUSH1 0x20 DUP4 ADD MLOAD PUSH2 0x29EA PUSH1 0x20 DUP7 ADD DUP3 PUSH2 0x2517 JUMP JUMPDEST POP PUSH1 0x40 DUP4 ADD MLOAD DUP5 DUP3 SUB PUSH1 0x40 DUP7 ADD MSTORE PUSH2 0x2A02 DUP3 DUP3 PUSH2 0x2635 JUMP JUMPDEST SWAP2 POP POP PUSH1 0x60 DUP4 ADD MLOAD DUP5 DUP3 SUB PUSH1 0x60 DUP7 ADD MSTORE PUSH2 0x2A1C DUP3 DUP3 PUSH2 0x2635 JUMP JUMPDEST SWAP2 POP POP PUSH1 0x80 DUP4 ADD MLOAD DUP5 DUP3 SUB PUSH1 0x80 DUP7 ADD MSTORE PUSH2 0x2A36 DUP3 DUP3 PUSH2 0x2635 JUMP JUMPDEST SWAP2 POP POP PUSH1 0xA0 DUP4 ADD MLOAD PUSH2 0x2A4B PUSH1 0xA0 DUP7 ADD DUP3 PUSH2 0x2B10 JUMP JUMPDEST POP PUSH1 0xC0 DUP4 ADD MLOAD PUSH2 0x2A5E PUSH1 0xC0 DUP7 ADD DUP3 PUSH2 0x2B10 JUMP JUMPDEST POP PUSH1 0xE0 DUP4 ADD MLOAD PUSH2 0x2A71 PUSH1 0xE0 DUP7 ADD DUP3 PUSH2 0x2B10 JUMP JUMPDEST POP PUSH2 0x100 DUP4 ADD MLOAD PUSH2 0x2A86 PUSH2 0x100 DUP7 ADD DUP3 PUSH2 0x2B10 JUMP JUMPDEST POP PUSH2 0x120 DUP4 ADD MLOAD PUSH2 0x2A9B PUSH2 0x120 DUP7 ADD DUP3 PUSH2 0x2B10 JUMP JUMPDEST POP PUSH2 0x140 DUP4 ADD MLOAD PUSH2 0x2AB0 PUSH2 0x140 DUP7 ADD DUP3 PUSH2 0x2626 JUMP JUMPDEST POP DUP1 SWAP2 POP POP SWAP3 SWAP2 POP POP JUMP JUMPDEST PUSH1 0x80 DUP3 ADD PUSH1 0x0 DUP3 ADD MLOAD PUSH2 0x2AD1 PUSH1 0x0 DUP6 ADD DUP3 PUSH2 0x2517 JUMP JUMPDEST POP PUSH1 0x20 DUP3 ADD MLOAD PUSH2 0x2AE4 PUSH1 0x20 DUP6 ADD DUP3 PUSH2 0x2B10 JUMP JUMPDEST POP PUSH1 0x40 DUP3 ADD MLOAD PUSH2 0x2AF7 PUSH1 0x40 DUP6 ADD DUP3 PUSH2 0x2B10 JUMP JUMPDEST POP PUSH1 0x60 DUP3 ADD MLOAD PUSH2 0x2B0A PUSH1 0x60 DUP6 ADD DUP3 PUSH2 0x2608 JUMP JUMPDEST POP POP POP POP JUMP JUMPDEST PUSH2 0x2B19 DUP2 PUSH2 0x3123 JUMP JUMPDEST DUP3 MSTORE POP POP JUMP JUMPDEST PUSH2 0x2B28 DUP2 PUSH2 0x3123 JUMP JUMPDEST DUP3 MSTORE POP POP JUMP JUMPDEST PUSH1 0x0 PUSH2 0x2B39 DUP3 PUSH2 0x2858 JUMP JUMPDEST SWAP2 POP DUP2 SWAP1 POP SWAP2 SWAP1 POP JUMP JUMPDEST PUSH1 0x0 PUSH1 0x20 DUP3 ADD SWAP1 POP PUSH2 0x2B58 PUSH1 0x0 DUP4 ADD DUP5 PUSH2 0x2526 JUMP JUMPDEST SWAP3 SWAP2 POP POP JUMP JUMPDEST PUSH1 0x0 PUSH1 0x20 DUP3 ADD SWAP1 POP DUP2 DUP2 SUB PUSH1 0x0 DUP4 ADD MSTORE PUSH2 0x2B78 DUP2 DUP5 PUSH2 0x2535 JUMP JUMPDEST SWAP1 POP SWAP3 SWAP2 POP POP JUMP JUMPDEST PUSH1 0x0 PUSH1 0x20 DUP3 ADD SWAP1 POP DUP2 DUP2 SUB PUSH1 0x0 DUP4 ADD MSTORE PUSH2 0x2B9A DUP2 DUP5 PUSH2 0x25AA JUMP JUMPDEST SWAP1 POP SWAP3 SWAP2 POP POP JUMP JUMPDEST PUSH1 0x0 PUSH1 0x20 DUP3 ADD SWAP1 POP PUSH2 0x2BB7 PUSH1 0x0 DUP4 ADD DUP5 PUSH2 0x2617 JUMP JUMPDEST SWAP3 SWAP2 POP POP JUMP JUMPDEST PUSH1 0x0 PUSH1 0x20 DUP3 ADD SWAP1 POP DUP2 DUP2 SUB PUSH1 0x0 DUP4 ADD MSTORE PUSH2 0x2BD6 DUP2 PUSH2 0x266E JUMP JUMPDEST SWAP1 POP SWAP2 SWAP1 POP JUMP JUMPDEST PUSH1 0x0 PUSH1 0x20 DUP3 ADD SWAP1 POP DUP2 DUP2 SUB PUSH1 0x0 DUP4 ADD MSTORE PUSH2 0x2BF6 DUP2 PUSH2 0x2691 JUMP JUMPDEST SWAP1 POP SWAP2 SWAP1 POP JUMP JUMPDEST PUSH1 0x0 PUSH1 0x20 DUP3 ADD SWAP1 POP DUP2 DUP2 SUB PUSH1 0x0 DUP4 ADD MSTORE PUSH2 0x2C16 DUP2 PUSH2 0x26B4 JUMP JUMPDEST SWAP1 POP SWAP2 SWAP1 POP JUMP JUMPDEST PUSH1 0x0 PUSH1 0x20 DUP3 ADD SWAP1 POP DUP2 DUP2 SUB PUSH1 0x0 DUP4 ADD MSTORE PUSH2 0x2C36 DUP2 PUSH2 0x26D7 JUMP JUMPDEST SWAP1 POP SWAP2 SWAP1 POP JUMP JUMPDEST PUSH1 0x0 PUSH1 0x20 DUP3 ADD SWAP1 POP DUP2 DUP2 SUB PUSH1 0x0 DUP4 ADD MSTORE PUSH2 0x2C56 DUP2 PUSH2 0x26FA JUMP JUMPDEST SWAP1 POP SWAP2 SWAP1 POP JUMP JUMPDEST PUSH1 0x0 PUSH1 0x20 DUP3 ADD SWAP1 POP DUP2 DUP2 SUB PUSH1 0x0 DUP4 ADD MSTORE PUSH2 0x2C76 DUP2 PUSH2 0x271D JUMP JUMPDEST SWAP1 POP SWAP2 SWAP1 POP JUMP JUMPDEST PUSH1 0x0 PUSH1 0x20 DUP3 ADD SWAP1 POP DUP2 DUP2 SUB PUSH1 0x0 DUP4 ADD MSTORE PUSH2 0x2C96 DUP2 PUSH2 0x2763 JUMP JUMPDEST SWAP1 POP SWAP2 SWAP1 POP JUMP JUMPDEST PUSH1 0x0 PUSH1 0x20 DUP3 ADD SWAP1 POP DUP2 DUP2 SUB PUSH1 0x0 DUP4 ADD MSTORE PUSH2 0x2CB6 DUP2 PUSH2 0x27A9 JUMP JUMPDEST SWAP1 POP SWAP2 SWAP1 POP JUMP JUMPDEST PUSH1 0x0 PUSH1 0x20 DUP3 ADD SWAP1 POP DUP2 DUP2 SUB PUSH1 0x0 DUP4 ADD MSTORE PUSH2 0x2CD6 DUP2 PUSH2 0x27EF JUMP JUMPDEST SWAP1 POP SWAP2 SWAP1 POP JUMP JUMPDEST PUSH1 0x0 PUSH1 0x20 DUP3 ADD SWAP1 POP DUP2 DUP2 SUB PUSH1 0x0 DUP4 ADD MSTORE PUSH2 0x2CF6 DUP2 PUSH2 0x287B JUMP JUMPDEST SWAP1 POP SWAP2 SWAP1 POP JUMP JUMPDEST PUSH1 0x0 PUSH1 0x20 DUP3 ADD SWAP1 POP DUP2 DUP2 SUB PUSH1 0x0 DUP4 ADD MSTORE PUSH2 0x2D16 DUP2 PUSH2 0x289E JUMP JUMPDEST SWAP1 POP SWAP2 SWAP1 POP JUMP JUMPDEST PUSH1 0x0 PUSH1 0x20 DUP3 ADD SWAP1 POP DUP2 DUP2 SUB PUSH1 0x0 DUP4 ADD MSTORE PUSH2 0x2D37 DUP2 DUP5 PUSH2 0x29BE JUMP JUMPDEST SWAP1 POP SWAP3 SWAP2 POP POP JUMP JUMPDEST PUSH1 0x0 PUSH1 0x20 DUP3 ADD SWAP1 POP PUSH2 0x2D54 PUSH1 0x0 DUP4 ADD DUP5 PUSH2 0x2B1F JUMP JUMPDEST SWAP3 SWAP2 POP POP JUMP JUMPDEST PUSH1 0x0 PUSH1 0x60 DUP3 ADD SWAP1 POP PUSH2 0x2D6F PUSH1 0x0 DUP4 ADD DUP6 PUSH2 0x2B1F JUMP JUMPDEST DUP2 DUP2 SUB PUSH1 0x20 DUP4 ADD MSTORE PUSH2 0x2D80 DUP2 PUSH2 0x2740 JUMP JUMPDEST SWAP1 POP PUSH2 0x2D8F PUSH1 0x40 DUP4 ADD DUP5 PUSH2 0x2B1F JUMP JUMPDEST SWAP4 SWAP3 POP POP POP JUMP JUMPDEST PUSH1 0x0 PUSH1 0x60 DUP3 ADD SWAP1 POP PUSH2 0x2DAB PUSH1 0x0 DUP4 ADD DUP6 PUSH2 0x2B1F JUMP JUMPDEST DUP2 DUP2 SUB PUSH1 0x20 DUP4 ADD MSTORE PUSH2 0x2DBC DUP2 PUSH2 0x2786 JUMP JUMPDEST SWAP1 POP PUSH2 0x2DCB PUSH1 0x40 DUP4 ADD DUP5 PUSH2 0x2B1F JUMP JUMPDEST SWAP4 SWAP3 POP POP POP JUMP JUMPDEST PUSH1 0x0 PUSH1 0x60 DUP3 ADD SWAP1 POP PUSH2 0x2DE7 PUSH1 0x0 DUP4 ADD DUP6 PUSH2 0x2B1F JUMP JUMPDEST DUP2 DUP2 SUB PUSH1 0x20 DUP4 ADD MSTORE PUSH2 0x2DF8 DUP2 PUSH2 0x27CC JUMP JUMPDEST SWAP1 POP PUSH2 0x2E07 PUSH1 0x40 DUP4 ADD DUP5 PUSH2 0x2B1F JUMP JUMPDEST SWAP4 SWAP3 POP POP POP JUMP JUMPDEST PUSH1 0x0 PUSH1 0x60 DUP3 ADD SWAP1 POP PUSH2 0x2E23 PUSH1 0x0 DUP4 ADD DUP6 PUSH2 0x2B1F JUMP JUMPDEST DUP2 DUP2 SUB PUSH1 0x20 DUP4 ADD MSTORE PUSH2 0x2E34 DUP2 PUSH2 0x2812 JUMP JUMPDEST SWAP1 POP PUSH2 0x2E43 PUSH1 0x40 DUP4 ADD DUP5 PUSH2 0x2B1F JUMP JUMPDEST SWAP4 SWAP3 POP POP POP JUMP JUMPDEST PUSH1 0x0 PUSH1 0x60 DUP3 ADD SWAP1 POP PUSH2 0x2E5F PUSH1 0x0 DUP4 ADD DUP6 PUSH2 0x2B1F JUMP JUMPDEST DUP2 DUP2 SUB PUSH1 0x20 DUP4 ADD MSTORE PUSH2 0x2E70 DUP2 PUSH2 0x2835 JUMP JUMPDEST SWAP1 POP PUSH2 0x2E7F PUSH1 0x40 DUP4 ADD DUP5 PUSH2 0x2B1F JUMP JUMPDEST SWAP4 SWAP3 POP POP POP JUMP JUMPDEST PUSH1 0x0 PUSH1 0x60 DUP3 ADD SWAP1 POP PUSH2 0x2E9B PUSH1 0x0 DUP4 ADD DUP7 PUSH2 0x2B1F JUMP JUMPDEST PUSH2 0x2EA8 PUSH1 0x20 DUP4 ADD DUP6 PUSH2 0x2B1F JUMP JUMPDEST PUSH2 0x2EB5 PUSH1 0x40 DUP4 ADD DUP5 PUSH2 0x2B1F JUMP JUMPDEST SWAP5 SWAP4 POP POP POP POP JUMP JUMPDEST PUSH1 0x0 PUSH2 0x2EC7 PUSH2 0x2ED8 JUMP JUMPDEST SWAP1 POP PUSH2 0x2ED3 DUP3 DUP3 PUSH2 0x31B3 JUMP JUMPDEST SWAP2 SWAP1 POP JUMP JUMPDEST PUSH1 0x0 PUSH1 0x40 MLOAD SWAP1 POP SWAP1 JUMP JUMPDEST PUSH1 0x0 PUSH8 0xFFFFFFFFFFFFFFFF DUP3 GT ISZERO PUSH2 0x2EFD JUMPI PUSH2 0x2EFC PUSH2 0x3318 JUMP JUMPDEST JUMPDEST PUSH2 0x2F06 DUP3 PUSH2 0x335B JUMP JUMPDEST SWAP1 POP PUSH1 0x20 DUP2 ADD SWAP1 POP SWAP2 SWAP1 POP JUMP JUMPDEST PUSH1 0x0 DUP2 SWAP1 POP PUSH1 0x20 DUP3 ADD SWAP1 POP SWAP2 SWAP1 POP JUMP JUMPDEST PUSH1 0x0 DUP2 SWAP1 POP PUSH1 0x20 DUP3 ADD SWAP1 POP SWAP2 SWAP1 POP JUMP JUMPDEST PUSH1 0x0 DUP2 MLOAD SWAP1 POP SWAP2 SWAP1 POP JUMP JUMPDEST PUSH1 0x0 DUP2 MLOAD SWAP1 POP SWAP2 SWAP1 POP JUMP JUMPDEST PUSH1 0x0 DUP2 MLOAD SWAP1 POP SWAP2 SWAP1 POP JUMP JUMPDEST PUSH1 0x0 PUSH1 0x20 DUP3 ADD SWAP1 POP SWAP2 SWAP1 POP JUMP JUMPDEST PUSH1 0x0 PUSH1 0x20 DUP3 ADD SWAP1 POP SWAP2 SWAP1 POP JUMP JUMPDEST PUSH1 0x0 DUP3 DUP3 MSTORE PUSH1 0x20 DUP3 ADD SWAP1 POP SWAP3 SWAP2 POP POP JUMP JUMPDEST PUSH1 0x0 DUP3 DUP3 MSTORE PUSH1 0x20 DUP3 ADD SWAP1 POP SWAP3 SWAP2 POP POP JUMP JUMPDEST PUSH1 0x0 DUP2 SWAP1 POP SWAP3 SWAP2 POP POP JUMP JUMPDEST PUSH1 0x0 DUP3 DUP3 MSTORE PUSH1 0x20 DUP3 ADD SWAP1 POP SWAP3 SWAP2 POP POP JUMP JUMPDEST PUSH1 0x0 DUP3 DUP3 MSTORE PUSH1 0x20 DUP3 ADD SWAP1 POP SWAP3 SWAP2 POP POP JUMP JUMPDEST PUSH1 0x0 PUSH2 0x2FC8 DUP3 PUSH2 0x3123 JUMP JUMPDEST SWAP2 POP PUSH2 0x2FD3 DUP4 PUSH2 0x3123 JUMP JUMPDEST SWAP3 POP DUP3 PUSH32 0xFFFFFFFFFFFFFFFFFFFFFFFFFFFFFFFFFFFFFFFFFFFFFFFFFFFFFFFFFFFFFFFF SUB DUP3 GT ISZERO PUSH2 0x3008 JUMPI PUSH2 0x3007 PUSH2 0x322D JUMP JUMPDEST JUMPDEST DUP3 DUP3 ADD SWAP1 POP SWAP3 SWAP2 POP POP JUMP JUMPDEST PUSH1 0x0 PUSH2 0x301E DUP3 PUSH2 0x3123 JUMP JUMPDEST SWAP2 POP PUSH2 0x3029 DUP4 PUSH2 0x3123 JUMP JUMPDEST SWAP3 POP DUP3 PUSH2 0x3039 JUMPI PUSH2 0x3038 PUSH2 0x325C JUMP JUMPDEST JUMPDEST DUP3 DUP3 DIV SWAP1 POP SWAP3 SWAP2 POP POP JUMP JUMPDEST PUSH1 0x0 PUSH2 0x304F DUP3 PUSH2 0x3123 JUMP JUMPDEST SWAP2 POP PUSH2 0x305A DUP4 PUSH2 0x3123 JUMP JUMPDEST SWAP3 POP DUP2 PUSH32 0xFFFFFFFFFFFFFFFFFFFFFFFFFFFFFFFFFFFFFFFFFFFFFFFFFFFFFFFFFFFFFFFF DIV DUP4 GT DUP3 ISZERO ISZERO AND ISZERO PUSH2 0x3093 JUMPI PUSH2 0x3092 PUSH2 0x322D JUMP JUMPDEST JUMPDEST DUP3 DUP3 MUL SWAP1 POP SWAP3 SWAP2 POP POP JUMP JUMPDEST PUSH1 0x0 PUSH2 0x30A9 DUP3 PUSH2 0x3123 JUMP JUMPDEST SWAP2 POP PUSH2 0x30B4 DUP4 PUSH2 0x3123 JUMP JUMPDEST SWAP3 POP DUP3 DUP3 LT ISZERO PUSH2 0x30C7 JUMPI PUSH2 0x30C6 PUSH2 0x322D JUMP JUMPDEST JUMPDEST DUP3 DUP3 SUB SWAP1 POP SWAP3 SWAP2 POP POP JUMP JUMPDEST PUSH1 0x0 PUSH2 0x30DD DUP3 PUSH2 0x3103 JUMP JUMPDEST SWAP1 POP SWAP2 SWAP1 POP JUMP JUMPDEST PUSH1 0x0 DUP2 ISZERO ISZERO SWAP1 POP SWAP2 SWAP1 POP JUMP JUMPDEST PUSH1 0x0 DUP2 SWAP1 POP PUSH2 0x30FE DUP3 PUSH2 0x372F JUMP JUMPDEST SWAP2 SWAP1 POP JUMP JUMPDEST PUSH1 0x0 PUSH20 0xFFFFFFFFFFFFFFFFFFFFFFFFFFFFFFFFFFFFFFFF DUP3 AND SWAP1 POP SWAP2 SWAP1 POP JUMP JUMPDEST PUSH1 0x0 DUP2 SWAP1 POP SWAP2 SWAP1 POP JUMP JUMPDEST PUSH1 0x0 PUSH2 0x3138 DUP3 PUSH2 0x30F0 JUMP JUMPDEST SWAP1 POP SWAP2 SWAP1 POP JUMP JUMPDEST DUP3 DUP2 DUP4 CALLDATACOPY PUSH1 0x0 DUP4 DUP4 ADD MSTORE POP POP POP JUMP JUMPDEST PUSH1 0x0 JUMPDEST DUP4 DUP2 LT ISZERO PUSH2 0x316C JUMPI DUP1 DUP3 ADD MLOAD DUP2 DUP5 ADD MSTORE PUSH1 0x20 DUP2 ADD SWAP1 POP PUSH2 0x3151 JUMP JUMPDEST DUP4 DUP2 GT ISZERO PUSH2 0x317B JUMPI PUSH1 0x0 DUP5 DUP5 ADD MSTORE JUMPDEST POP POP POP POP JUMP JUMPDEST PUSH1 0x0 PUSH1 0x2 DUP3 DIV SWAP1 POP PUSH1 0x1 DUP3 AND DUP1 PUSH2 0x3199 JUMPI PUSH1 0x7F DUP3 AND SWAP2 POP JUMPDEST PUSH1 0x20 DUP3 LT DUP2 EQ ISZERO PUSH2 0x31AD JUMPI PUSH2 0x31AC PUSH2 0x32BA JUMP JUMPDEST JUMPDEST POP SWAP2 SWAP1 POP JUMP JUMPDEST PUSH2 0x31BC DUP3 PUSH2 0x335B JUMP JUMPDEST DUP2 ADD DUP2 DUP2 LT PUSH8 0xFFFFFFFFFFFFFFFF DUP3 GT OR ISZERO PUSH2 0x31DB JUMPI PUSH2 0x31DA PUSH2 0x3318 JUMP JUMPDEST JUMPDEST DUP1 PUSH1 0x40 MSTORE POP POP POP JUMP JUMPDEST PUSH1 0x0 PUSH2 0x31EF DUP3 PUSH2 0x3123 JUMP JUMPDEST SWAP2 POP PUSH32 0xFFFFFFFFFFFFFFFFFFFFFFFFFFFFFFFFFFFFFFFFFFFFFFFFFFFFFFFFFFFFFFFF DUP3 EQ ISZERO PUSH2 0x3222 JUMPI PUSH2 0x3221 PUSH2 0x322D JUMP JUMPDEST JUMPDEST PUSH1 0x1 DUP3 ADD SWAP1 POP SWAP2 SWAP1 POP JUMP JUMPDEST PUSH32 0x4E487B7100000000000000000000000000000000000000000000000000000000 PUSH1 0x0 MSTORE PUSH1 0x11 PUSH1 0x4 MSTORE PUSH1 0x24 PUSH1 0x0 REVERT JUMPDEST PUSH32 0x4E487B7100000000000000000000000000000000000000000000000000000000 PUSH1 0x0 MSTORE PUSH1 0x12 PUSH1 0x4 MSTORE PUSH1 0x24 PUSH1 0x0 REVERT JUMPDEST PUSH32 0x4E487B7100000000000000000000000000000000000000000000000000000000 PUSH1 0x0 MSTORE PUSH1 0x21 PUSH1 0x4 MSTORE PUSH1 0x24 PUSH1 0x0 REVERT JUMPDEST PUSH32 0x4E487B7100000000000000000000000000000000000000000000000000000000 PUSH1 0x0 MSTORE PUSH1 0x22 PUSH1 0x4 MSTORE PUSH1 0x24 PUSH1 0x0 REVERT JUMPDEST PUSH32 0x4E487B7100000000000000000000000000000000000000000000000000000000 PUSH1 0x0 MSTORE PUSH1 0x32 PUSH1 0x4 MSTORE PUSH1 0x24 PUSH1 0x0 REVERT JUMPDEST PUSH32 0x4E487B7100000000000000000000000000000000000000000000000000000000 PUSH1 0x0 MSTORE PUSH1 0x41 PUSH1 0x4 MSTORE PUSH1 0x24 PUSH1 0x0 REVERT JUMPDEST PUSH1 0x0 DUP1 REVERT JUMPDEST PUSH1 0x0 DUP1 REVERT JUMPDEST PUSH1 0x0 DUP1 REVERT JUMPDEST PUSH1 0x0 DUP1 REVERT JUMPDEST PUSH1 0x0 PUSH1 0x1F NOT PUSH1 0x1F DUP4 ADD AND SWAP1 POP SWAP2 SWAP1 POP JUMP JUMPDEST PUSH32 0x63616D706169676E206E6F7420434F4E4649524D454400000000000000000000 PUSH1 0x0 DUP3 ADD MSTORE POP JUMP JUMPDEST PUSH32 0x54686973206973207370656369666963616C6C79207265737472696374656420 PUSH1 0x0 DUP3 ADD MSTORE PUSH32 0x746F20746865206F776E65720000000000000000000000000000000000000000 PUSH1 0x20 DUP3 ADD MSTORE POP JUMP JUMPDEST PUSH32 0x536F727279212C2063616E27742066696E642063616D706169676E0000000000 PUSH1 0x0 DUP3 ADD MSTORE POP JUMP JUMPDEST PUSH32 0x536F727279212C20556E617574686F72697A6564204F776E6572000000000000 PUSH1 0x0 DUP3 ADD MSTORE POP JUMP JUMPDEST PUSH32 0x4B696E646C7920777269746520746865207469746C65206F6620746865206361 PUSH1 0x0 DUP3 ADD MSTORE PUSH32 0x6D706169676E0000000000000000000000000000000000000000000000000000 PUSH1 0x20 DUP3 ADD MSTORE POP JUMP JUMPDEST PUSH32 0x536F727279212C2063616D706169676E206973206E6F206C6F6E676572205275 PUSH1 0x0 DUP3 ADD MSTORE PUSH32 0x6E6E696E67000000000000000000000000000000000000000000000000000000 PUSH1 0x20 DUP3 ADD MSTORE POP JUMP JUMPDEST PUSH32 0x63616D706169676E20535550504F525445440000000000000000000000000000 PUSH1 0x0 DUP3 ADD MSTORE POP JUMP JUMPDEST PUSH32 0x4B696E646C7920777269746520746865206465736372697074696F6E206F6620 PUSH1 0x0 DUP3 ADD MSTORE PUSH32 0x7468652063616D706169676E0000000000000000000000000000000000000000 PUSH1 0x20 DUP3 ADD MSTORE POP JUMP JUMPDEST PUSH32 0x63616D706169676E205445524D494E4154454400000000000000000000000000 PUSH1 0x0 DUP3 ADD MSTORE POP JUMP JUMPDEST PUSH32 0x4B696E646C7920696E636C7564652074686520496D61676555524C206F662074 PUSH1 0x0 DUP3 ADD MSTORE PUSH32 0x68652063616D706169676E000000000000000000000000000000000000000000 PUSH1 0x20 DUP3 ADD MSTORE POP JUMP JUMPDEST PUSH32 0x63616D706169676E2057495448445241574E0000000000000000000000000000 PUSH1 0x0 DUP3 ADD MSTORE POP JUMP JUMPDEST PUSH32 0x536F727279212C2063616D706169676E206973206E6F7420636C617373696669 PUSH1 0x0 DUP3 ADD MSTORE PUSH32 0x6564206173207265766572736564206F72207465726D696E6174656400000000 PUSH1 0x20 DUP3 ADD MSTORE POP JUMP JUMPDEST PUSH32 0x63616D706169676E204352454154454400000000000000000000000000000000 PUSH1 0x0 DUP3 ADD MSTORE POP JUMP JUMPDEST PUSH32 0x63616D706169676E205245564549574544000000000000000000000000000000 PUSH1 0x0 DUP3 ADD MSTORE POP JUMP JUMPDEST POP JUMP JUMPDEST PUSH32 0x4B696E646C792077726974652074686520616D6F756E7420696E204554482066 PUSH1 0x0 DUP3 ADD MSTORE PUSH32 0x6F72207468652063616D706169676E0000000000000000000000000000000000 PUSH1 0x20 DUP3 ADD MSTORE POP JUMP JUMPDEST PUSH32 0x536F727279212074686520616D6F756E74206F66206574686572206D75737420 PUSH1 0x0 DUP3 ADD MSTORE PUSH32 0x62652067726561746572207468616E207A65726F000000000000000000000000 PUSH1 0x20 DUP3 ADD MSTORE POP JUMP JUMPDEST PUSH1 0x5 DUP2 LT PUSH2 0x3740 JUMPI PUSH2 0x373F PUSH2 0x328B JUMP JUMPDEST JUMPDEST POP JUMP JUMPDEST PUSH2 0x374C DUP2 PUSH2 0x3123 JUMP JUMPDEST DUP2 EQ PUSH2 0x3757 JUMPI PUSH1 0x0 DUP1 REVERT JUMPDEST POP JUMP INVALID LOG2 PUSH5 0x6970667358 0x22 SLT KECCAK256 0xBC MLOAD 0xEB 0x24 0xC9 PUSH5 0x315D0E7DF9 0xB3 0xEB CHAINID LOG2 SHR PUSH25 0xEC78FC1789DC6604F5BE7E56403AC164736F6C634300080700 CALLER "},"methodIdentifiers":{"ReviewFee(uint256)":"a912e362","availableCampaign(uint256)":"ded196c4","balance()":"b69ef8a8","campaignFee()":"8a5be9b7","counts()":"817cc1ea","demandRefund(uint256)":"85d052e7","getcampaign(uint256)":"58968de2","getcampaigns()":"3fd016ab","getsupporters(uint256)":"f21b1a9c","numOfCampaign()":"2db59396","owner()":"8da5cb5b","reviewcampaign(uint256,string,string,string,uint256)":"f64b4f8d","startcampaign(string,string,string,uint256,uint256)":"fc5ee9ae","supportcampaign(uint256)":"48813d8c","terminatecampaign(uint256)":"3c3279ad","withdrawcampaign(uint256)":"7ecc3247"}}}}}